:020000040800F2
:10400000783C0020B942000803C9000849BD0008F7
:1040100001C90008C15E00088DD200080000000040
:1040200000000000000000000000000007C90008B8
:10403000196B00080000000005C9000809C9000844
:10404000D3420008D3420008D3420008D3420008FC
:10405000D3420008D3420008D3420008D3420008EC
:10406000D3420008D3420008D3420008D3420008DC
:10407000D3420008D3420008D3420008D3420008CC
:10408000D3420008D3420008D3420008D3420008BC
:10409000D3420008D3420008D3420008D3420008AC
:1040A000D3420008D3420008D3420008D34200089C
:1040B000D3420008D3420008D3420008D34200088C
:1040C000D3420008D3420008D3420008D34200087C
:1040D000D3420008D3420008D342000881D200082E
:1040E000D3420008D3420008D3420008D34200085C
:1040F000D3420008D3420008D3420008D34200084C
:10410000D3420008D3420008D3420008D34200083B
:10411000D3420008D34200082DC9000849C900084D
:10412000D3420008D3420008D3420008E96A0008DD
:10413000F56A0008D3420008D3420008D3420008C1
:10414000D3420008D3420008D342000835BC00081F
:10415000D3420008D3420008D3420008D3420008EB
:10416000D3420008D3420008D3420008D3420008DB
:10417000D3420008D3420008D3420008D3420008CB
:10418000D3420008D3420008D3420008D3420008BB
:10419000D342000800000000D3420008D3420008C8
:1041A000D3420008D3420008D3420008D34200089B
:1041B000D3420008D3420008D3420008D34200088B
:1041C000D3420008016B00080D6B0008D3420008C1
:1041D000D3420008D342000800F002F800F05CF877
:1041E0000AA090E8000C82448344AAF10107DA4552
:1041F00001D100F051F8AFF2090EBAE80F0013F048
:10420000010F18BFFB1A43F0010318474CF80000D8
:104210006CF800000A444FF0000C10F8013B13F05A
:10422000070408BF10F8014B1D1108BF10F8015B0F
:10423000641E05D010F8016B641E01F8016BF9D102
:1042400013F0080F1EBF10F8014BAD1C0C1B09D159
:104250006D1E58BF01F801CBFAD505E014F8016BCB
:1042600001F8016B6D1EF9D59142D6D3704700005D
:104270000023002400250026103A28BF78C1FBD86F
:10428000520728BF30C148BF0B6070471FB50BF005
:104290000DFB1FBD10B510BD00F0B0F91146FFF7C2
:1042A000F5FF0AF011FD00F0CEF903B4FFF7F2FFBD
:1042B00003BC00F0D1F900000948804709480047D5
:1042C000FEE7FEE7FEE7FEE7FEE7FEE7FEE7FEE7C6
:1042D000FEE7FEE704480549054A064B7047000023
:1042E0000DC90008D941000878360020783C00202C
:1042F000783800207838002053EA020C00F06980FA
:104300002DE9F04B4FF00006002B1FBFB3FA83F5E9
:1043100003FA05F424FA05F65E4012BF1643B2FA1A
:1043200082F502FA05F4C5F120051EBF22FA05FC4C
:1043300044EA0C04203556EA044C4FEA144418BFF2
:10434000641C4FF000084FF00009904271EB030C21
:1043500039D3002919BFB1FA81F701FA07F6B0FA8B
:1043600080F700FA07F6C7F120071EBF20FA07FC06
:1043700046EA0C062037B6FBF4FCA7EB0507103F16
:1043800007F01F0BCBF120060CFA0BFB2CFA06F6FC
:1043900044BFB3460026202FA4BF5E464FF0000B5B
:1043A0005BEA060C08BF4FF0010B19EB0B09ABFBE6
:1043B000027C48EB0608C01B06FB02CC0BFB03CCBF
:1043C00071EB0C01C1E70B46024641464846BDE889
:1043D000F08B13B54FF000004FF00001AFF30080F9
:1043E000BDE81C40704740EA010310B59B070FD1A0
:1043F000042A0DD310C808C9121F9C42F8D020BA55
:1044000019BA884201D9012010BD4FF0FF3010BD0C
:104410001AB1D30703D0521C07E0002010BD10F8DA
:10442000013B11F8014B1B1B07D110F8013B11F8A0
:10443000014B1B1B01D1921EF1D1184610BD032A5E
:1044400040F2308010F0030C00F0158011F8013BB1
:10445000BCF1020F624498BF11F801CB00F8013B98
:1044600038BF11F8013BA2F1040298BF00F801CB5C
:1044700038BF00F8013B11F0030300F02580083A33
:10448000C0F0088051F8043B083A51F804CBA0E88A
:104490000810F5E7121D5CBF51F8043B40F8043BDF
:1044A000AFF30080D20724BF11F8013B11F801CB14
:1044B00048BF11F8012B24BF00F8013B00F801CBE5
:1044C00048BF00F8012B704710B5203AC0F00B80B0
:1044D000B1E81850203AA0E81850B1E81850A0E808
:1044E0001850BFF4F5AF5FEA027C24BFB1E8185062
:1044F000A0E8185044BF18C918C0BDE810405FEAD2
:10450000827C24BF51F8043B40F8043B08BF70474D
:10451000D20728BF31F8023B48BF11F8012B28BF52
:1045200020F8023B48BF00F8012B704702F0FF0360
:1045300043EA032242EA024200F037B84FF0000299
:1045400000B5134694469646203922BFA0E80C5089
:10455000A0E80C50B1F12001BFF4F7AF090728BF64
:10456000A0E80C5048BF0CC05DF804EB890028BFE0
:1045700040F8042B08BF704748BF20F8022B11F009
:10458000804F18BF00F8012B704770477047704785
:1045900010B500F02BF8006810BD10B5044600F00F
:1045A00025F8046010BD4FF000020429C0F012800D
:1045B00010F0030C3FF4C4AFCCF1040CBCF1020FBB
:1045C00018BF00F8012BA8BF20F8022BA1EB0C01AB
:1045D000FFF7B6BF5FEAC17C24BF00F8012B00F8EB
:1045E000012B48BF00F8012B7047000000487047BE
:1045F0001836002000487047183600207546FFF72F
:10460000F9FFAE4605006946534620F0070085468F
:1046100018B020B5FFF75EFEBDE820404FF0000661
:104620004FF000074FF000084FF0000B21F007019A
:10463000AC46ACE8C009ACE8C009ACE8C009ACE8DD
:10464000C0098D46704710B50446AFF30080204680
:10465000BDE81040FFF729BE01491820ABBEFEE7B8
:1046600026000200704710B50146806AC26D12F044
:10467000500F06D0C26D12F0100F2FD002F04AFE7C
:1046800010BDC16D41F40071C16501680A6812F086
:10469000080F10D0CA6812F4406F04BFC96811F443
:1046A000005F18D1C16D21F48071C165C16D11F435
:1046B000805F10D10BE0C96811F0020F0BD1C16D02
:1046C00021F48071C165C16D11F4805F03D1C16DAA
:1046D00041F00101C16502F01BFE10BD406D426B4F
:1046E000BDE810400846104710B5806AC16D41F022
:1046F0004001C165016E41F00401016602F00AFE4D
:1047000010BD10B5806A02F004FE10BD70B50446FD
:10471000006881688268C1F3400112F0010F32D055
:1047200089BB816801F00D0101291DD1816821F04B
:104730003F0121F0004141F0020181602168032026
:10474000086004F06BF905462068806810F0010FDE
:1047500019D000BF04F062F9401B02280ED920686E
:10476000806810F0010F09D0E06D40F01000E065A6
:10477000206E40F001002066012070BD2068806836
:1047800010F0010FE6D1002070BD000030B583B0FD
:104790000446002001902068816811F0010F63D168
:1047A00081686FF39E11002961D1816821F03F017A
:1047B00021F0004141F0010181602068B0F1A04F7B
:1047C0001DBFA0F1A041B1F580713148314880682A
:1047D00010F4000F24D0304830490068B0FBF1F0ED
:1047E000401C00EB400080000190009018D0B0F118
:1047F000004F47D20028D8BF002005DD10F001008F
:1048000002D00199491E01910099401C491C88421F
:1048100006DA019A801C521E521E01928842F8DB71
:1048200004F0FCF805462068006810F0010F1BD169
:104830002068816811F0010F07D1816821F03F01E4
:1048400021F0004141F00101816004F0E7F8401BD4
:10485000022804D92068006810F0010F07D02068F2
:10486000006810F0010FE3D003B0002030BDE06D10
:1048700040F01000E065206E40F00100206603B0BB
:10488000012030BD0198401E0190FCD1C8E7000016
:10489000000700500003005034010020400D0300C9
:1048A0002DE9F04F2DED088B81B001F071FDFF4C2B
:1048B0008146207A40F002002072A06F41F28831D8
:1048C000401C0025A067884205D34FF48051F8486A
:1048D000A56704F096F8F748018882881144028998
:1048E00083891A441144028A1144828A1144028B3A
:1048F0001144828B1144028C1144828C1144028D2C
:104900001144828D1144028E1144828E1144028F13
:104910001144828F11444288C3881A444389B0F8F5
:104920000EC063441A44438A1A44C38A1A44438B10
:104930001A44C38B1A44438C1A44C38C1A44438DC3
:104940001A44C38D1A44438E1A44C38E1A44438FAB
:10495000C08F1A441044083001F1080100094FEAE1
:10496000111803D0E16DB1FBF0F0A061D2480188CD
:10497000428811448288C3881A4411440289114430
:104980004289114482891144C2891144028A114426
:10499000428A1144828A1144C28A1144028B114412
:1049A000428B1144828BC08B11440A18C348018882
:1049B000838819440389B0F80CC063441944038AFE
:1049C0001944838A1944038B1944838B1944038C3B
:1049D0001944838C1944038D1944838D1944038E23
:1049E0001944838E1944038F1944838F19444388D3
:1049F000B0F806C06344B0F80AC0C689B444634442
:104A0000B0F812C06344B0F816C06344B0F81AC0DE
:104A10006344B0F81EC06344B0F822C06344B0F8E9
:104A200026C06344B0F82AC06344B0F82EC0634483
:104A3000B0F832C06344B0F836C06344B0F83AC04E
:104A4000C08F634418440830C0F30F1C083208318B
:104A5000206AC2F30F17C1F30F16C119DFF860E225
:104A600020780EF1400A3EF810208A1A2262616A0C
:104A70008B190EF1200131F81010591A6162A36AE6
:104A80003AF810B06344A3EB0B03A3622EF8107046
:104A9000AAF1200727F810602AF810C0401C00F087
:104AA0000F00207002F10800A269C0F30F105043FC
:104AB00040F6FF76B0FBF6F000EB0010E06401F189
:104AC0000800A169C0F30F104843B0FBF6F000EBFB
:104AD0000010206503F108007A49C0F30F1051F867
:104AE00020006065A07800286AD0A06940F6B8313F
:104AF00008FB00F0B0FBF1F0216E401A642148433E
:104B0000616E90FBF1F01E30A0F5FE41FF3957D0E9
:104B10000028C0F2D98400BF4FF47A714843A065E1
:104B20000021DFF8A4C10B46084600BF00EB40029D
:104B30000A443CF812209A4288BF1346401CC0B277
:104B40001828F3D3A06903FB00F16048A0FB011013
:104B5000C0094FF4C87148435D49A1FB0010C0086B
:104B600020634FF000085B4B474642464146C4462F
:104B7000404600BF33F820A003EB800BBBF830B0F9
:104B8000B24534BFB3454FF0010C0CD25AEA0B0EBC
:104B900009D0BAF1000F15D0BBF1000F16D0DA44DE
:104BA000921CD044D2B2401CC0B20C28E2D3002ADE
:104BB0001CBF08EB5200B0FBF2F00BD087B218E03C
:104BC000A565ADE7491C5F44C9B2ECE7491C5744F1
:104BD000C9B2E8E739B1BCF1000F04BF4800B7FB28
:104BE000F0F0EBD004E0BCF1000F08BF2F4600D07E
:104BF00037465988374A901CD288114402898389E4
:104C00001A441144028A1144828A1144028B1144CD
:104C1000828B1144028C1144828C1144028D114408
:104C2000828D1144028E1144828E1144028F1144F0
:104C3000828F1144B0F840201144B0F84420114450
:104C4000B0F848201144B0F84C201144B0F850207E
:104C50001144B0F854201144B0F85820B0F85C006A
:104C6000114408441C490C30A1FB0010C0F30F187C
:104C7000012009F0C1F98346022009F0BDF9E16A7B
:104C8000164A0B18617832F811C0A3EB0C03E362EB
:104C900022F81100481C00F007006070181DC0F3D6
:104CA000CF0AA0697843B0FBF6F019E000000020BD
:104CB00000040048F802002098020020B8020020FA
:104CC00038010020B8F800080802002081808080A8
:104CD00089888888A8010020ABAAAAAA9801002088
:104CE0004FF47A7100FB01F7A06908FB00F0B0FBFC
:104CF000F6F000EB0018A06967640BFB00F0DFF82A
:104D0000ACB4ABFB0010C00940F25A61484342F218
:104D10001071B0FBF1F6A664D9F88C0058B101F01F
:104D200067FA40B1304601F0CDF8064601463846F4
:104D300001F04CF90746A06921460AFB00F0ABFBE5
:104D40000020C00940F6C412904228BF4FF0000A6C
:104D500006D2404200EB800046F2A81202EB400A65
:104D6000C1F83C800F644E63C1F838A0D1F89000C0
:104D7000D1F89420C0192C466241C1F89000C1F8C6
:104D80009420D1F89800D1F89C2080196241C1F894
:104D90009800C1F89C20D1F8A000D1F8A42010EB15
:104DA0000A006241C1F8A000C1F8A420D1F8800037
:104DB000401CC1F88000FE480068D0F88803DFF886
:104DC000F4B310F0080F4FF0010507D08BF80F5027
:104DD0008BF80C408BF80D408BF81840F648416D6D
:104DE000F648814203D8F449896D814214D99BF871
:104DF000100058B98BF8105000200AF02BFB2A46FF
:104E00004FF480514FF0904003F003FE8BF80C40BC
:104E10008BF80D408BF81840B8F5FA4F1DD8E649CD
:104E2000C86CB0F5FA5F18D3C86C43F6982282427A
:104E300013D3086D40F6746290420ED3086D41F6AC
:104E40006412824209D3886940F68C22904204D3CE
:104E5000886941F26802824208D2D7482A46817B9B
:104E60001E293CBF491C8173C47306E08C73C87B48
:104E700022460A283CBF401CC873CF48407BDFED68
:104E8000D0AA9FEDD08A08B1B2B147E0CA48817B71
:104E90001E296FD34573C47300200AF0DBFA9BF818
:104EA0000C0030B100224FF480514FF0904003F0DD
:104EB000B0FD0AF04BFA2EE0BF4DE87B0A282DD357
:104EC00001F066FA00906C73AC730AF03FFA9BED48
:104ED000070A009820EE2A0A008D85ED1B0A85ED51
:104EE0001C8A85ED1D8AE882EC719BF80C0090B15C
:104EF0009BF80F00002804BF9BF8100000280AD17F
:104F00004FF001000AF0A6FA00224FF480514FF052
:104F1000904003F07EFDA848407B50B3B0EE480AB5
:104F20000AF050FA00200AF095FA9BF80C000028CD
:104F30000CBF012200224FF480514FF0904003F04B
:104F400068FD9BED070A9C48002120EE2A0A80EDAF
:104F50001B0A80ED1C8A80ED1D8AC182C4719BF8FA
:104F60000C0000281EBF01B0BDEC088BBDE8F08F1F
:104F70001EE0FFE79BF80C00D0B19BED070AD9EDCE
:104F8000080A9BF80D0030EE20AA50B39BED050AED
:104F900002208BF81800B4EECA0AF1EE10FA00F302
:104FA000978201B0BDEC088BBDE8F04F0AF00ABA59
:104FB000B0EE480A0AF006FA01F0EAF99BF80C1084
:104FC00000297DD181697C48826E914204BFC079FD
:104FD000002875D001B0BDEC088BBDE8F04F08F09B
:104FE000A3BF4FF47A70B8FBF0F16FF07C024A4334
:104FF00008EBC2020AFB02F2B2FBF0F20AFB01214B
:10500000B7FBF0F26FF07C03534307EBC30373432A
:10501000B3FBF0F006FB02028A4288BF1146DBF8C0
:105020000000C01B00EE100ADBF80400F8EEC09A86
:10503000801B00EE100ADBF80800B8EEC09A401A98
:1050400000EE100AF8EEC08A01F0A2F9DFF868E17C
:1050500002469EF80700F7EE002A00287ED0DFF80F
:1050600068A1DAF80070DAF80410DAF80830DAF833
:105070000CC0DAF81060DAF81480DAF81800DAED0B
:10508000070A9AED080A9AED092ABAF828A08EF8BC
:1050900007406AF30F05464CD4F800A0CAF8141074
:1050A000D4F800A0CAF89410D4F800A0CAF81411DB
:1050B000CAF89431CAF814C2CAF89462302300E0E6
:1050C00009E2CAF81C30D4F800C0CCF82830D4F873
:1050D00000C04E08CCF89C60D4F800C0CCF81C612D
:1050E000ABF83830394BCEF868701960C3E90180ED
:1050F000C3ED030AF0EE480A83ED040AB4EEE02A99
:10510000F1EE10FA0AD3F0EE620AB4EEE02AF1EE04
:1051100010FACCBFF0EE620AF0EE420AA9B23023D8
:10512000302938BF184602D3884228BF084680B2CB
:1051300030281CBFCCF82800ABF83800BBF838008A
:10514000303801EE100AB8EE411A21EE000A8BED5C
:10515000070A9BF81800022806D000E07EE001282C
:1051600036D0032851D06CE092ED001AB0EE690AF7
:10517000F0EE601AB0EE482A41EE401AB0EE621A24
:105180000BF12000B0EE610AB4EEC20AF1EE10FAA3
:1051900038BFB0EE420A50D3B4EEC10AF1EE10FAB5
:1051A0004BDD00BFB0EE410A47E000008180808007
:1051B0000C320020F40600200000002070110100D5
:1051C0000000C842000000004C0700203807002003
:1051D00092ED021AB0EE49BAB0EE600AF0EE481A4B
:1051E00001EE4B0AB0EE621A0BF12800B4EEE10AB0
:1051F000F1EE10FA03D200BFB0EE610A1DE0B4EE8A
:10520000C10AF1EE10FA18DDCCE7D2ED041AB0EEC7
:10521000680AB0EE601A0BF1300001EEC01AF0EE31
:10522000481AB0EE620AB4EEE11AF1EE10FAE3D3D6
:10523000B4EEC01AF1EE10FAB4DD80ED010AC0ED53
:10524000000A9BED070A20EE2A0A8EED1B0A8EED5E
:105250001C8A8EED1D8A908DAEF816009BED090A12
:1052600099ED004AB0EE402A04EE290AB4EEC80ACD
:10527000F1EE10FA38BFB0EE480A08D3F0EE620A39
:10528000B4EEE00AF1EE10FAC8BFB0EE620AF0EE3A
:10529000401ADBED0B0AD9ED023AB0EE620AB0EE2D
:1052A000606A43EE890AF4EEC80AF1EE10FA38BFDC
:1052B000B0EE480A06D3F4EEC00AF1EE10FAD8BFF9
:1052C000B0EE600AF0EE404A9BED0D1A99ED045ADB
:1052D000F0EE620AF0EE416A05EE281AB4EEC81A42
:1052E000F1EE10FA38BFB0EE481A08D3B0EE600AFB
:1052F000B4EEC01AF1EE10FAC8BFB0EE601AB0EE0C
:10530000413A99ED010AF0EE425A40EE295AB0EEC8
:10531000480AB0EE651AB4EEC01AF1EE10FA38BFC2
:10532000B0EE401A08D3B0EE600AB4EEC01AF1EE47
:1053300010FAC8BFB0EE601A99ED030A00EE096AD0
:10534000B0EE480AB4EEC06AF1EE10FA0AD3B0EE3D
:10535000600AB4EEC06AF1EE10FACCBFB0EE600A9B
:10536000B0EE460AF0EE405A99ED050AF0EE482AF2
:1053700040EE286AB0EE600AF4EEE26AF1EE10FA4E
:1053800008D3F4EEC06AF1EE10FACCBFF0EE402A7A
:10539000F0EE662A9BF81800022817D1F0EE411AA9
:1053A000B0EE480A44EE291AF4EEC01AF1EE10FAF3
:1053B0000AD3B0EE600AF4EEC01AF1EE10FACCBFD8
:1053C000B0EE600AB0EE610AF0EE401A012819D181
:1053D000B0EE650A03EE890AF0EE403AB0EE480AF4
:1053E000F4EEC03AF1EE10FA0AD3B0EE600AF4EE31
:1053F000C03AF1EE10FACCBFB0EE600AB0EE630A2C
:10540000F0EE404A032818BFB0EE430A48D000BF70
:10541000F0EE400AB0EE640A0120F4EEC01AF1EE9C
:1054200010FA3CBFB0EE610A0220F4EEC00AF1EEC1
:1054300010FA3CBFB0EE600A0320B4EECA0AF1EEE7
:1054400010FAC6BF0122B0EE4A0A00220BF1200179
:10545000002A0CBF0228B0EE421A81ED011AC1EDFC
:10546000001A0BF12801002A0CBF0128D1ED015AC6
:10547000C1ED015AC1ED004A0BF13001002A0CBF09
:105480000328D1ED012AC1ED012AC1ED000A8BF8F4
:10549000180001B0BDEC088BBDE8F04F09F092BFD9
:1054A000B0EE620A05EE280AB4EEC80AF1EE10FA70
:1054B00038BFB0EE480AABD3B4EEE00AF1EE10FA12
:1054C000C8BFB0EE600AA3E70020FFF725BB00BF0E
:1054D000B0EE4A0A65E501B0BDEC088BBDE8F08F7F
:1054E0000A494968091A0A48C0F88410C2699142F9
:1054F0008CBFC2690A46C261D0F88820914298BF29
:10550000D0F88810C0F8881070470000001000E044
:105510000000002070B544218048FFF70FF8804C50
:105520000025E57001F068F800F034FE7D4850F881
:10553000941FC1F34071E172016841F40001016000
:10554000794804F03DFE7948016841F080710160BE
:1055500077484560016841F001010160C4F884505A
:105560004017E061C4F8885001221103714803F02C
:1055700050FA012211034FF0904003F04AFA012241
:1055800051036D4803F045FA6C487F2101F02CFB74
:10559000002818BF01F0C1FA69487F2101F024FBFF
:1055A000002818BF01F0B9FA66487F2101F01CFB02
:1055B000002818BF01F0B1FA63487F2101F014FB05
:1055C000002818BF01F0A9FA60487F2101F00CFB08
:1055D000002818BF01F0A1FA5D4840F6B8310088F4
:1055E0004843E0655B485C49008820660988081AE2
:1055F000606618BF0120A0700021584802F024FD09
:10560000002818BF01F089FAA069002814BFA0691A
:1056100040F6E4405249B1FBF0F3B3F5805F28BF98
:1056200040F6FF73002211464C4802F0F5FC4D484D
:1056300002F03EFB002818BF01F06FFA002009F0CD
:1056400009FF012211034FF0904003F0E2F908F046
:105650006BFC3F21444804F0A9F8002818BF01F072
:105660005CFA36484149302202F012F9002818BF8E
:1056700001F053FA32483E49482202F009F9002865
:1056800018BF01F04AFA2F483A49102202F000F9F7
:10569000002818BF01F041FA2B483749202202F0B8
:1056A000F7F8002818BF01F038FA284833492022BB
:1056B00002F0EEF8002818BF01F02FFA4FF47C1129
:1056C000294804F09FF9002818BF01F026FA0120AC
:1056D000124988732A4805F0F5FC002818BF01F02C
:1056E0001CFA284805F0EEFC002818BF01F015FA56
:1056F00060222549254805F06DFE18B1BDE87040CF
:1057000001F00BBA2148D0F88000002808BF70BD16
:105710000068016821F00401016070BDF4060020FA
:1057200000000020001002401C340020FCED00E0CE
:10573000001000E00004004800080048D82D0020B8
:10574000442E0020B02E00201C2F0020882F002087
:10575000AA75FF1FA875FF1FCA75FF1FF83100202B
:1057600036978C00D43100200C320020A801002094
:105770000802002098020020B8020020F802002051
:105780002C3400207834002038030020C43400205A
:10579000F0B585B004004FF000000A9D8DF80400BC
:1057A0009FED670A02908DED030A1CBF002A002DB1
:1057B00010D092F800C04FF01900BCF1010F08BFE3
:1057C00040F2391003D0BCF1020F08BF1E20861C26
:1057D0008E4202D905B00020F0BDC6202070667050
:1057E000310AA1701078E0702371108A6071000A8C
:1057F000A0715088E071000A2072686860724FEAF8
:10580000102C84F80AC04FEA104C84F80BC0000E2C
:105810002073A86860734FEA102C84F80EC04FEA1A
:10582000104C84F80FC0000E2074E86860744FEAD2
:10583000102C84F812C04FEA104C84F813C0000EEC
:105840002075286960754FEA102C84F816C04FEA5D
:10585000104C84F817C0000E207610784FF0190C09
:10586000012802D0022811D033E004F1190005F11B
:10587000140100F0D8F8193087B2E01905F1A4013D
:1058800000F0D1F838441FFA80FC22E0507801285B
:1058900014BF05F1140005F1A40033B903A9009168
:1058A000518802AB01AA00F0C5FD9DF804006076A6
:1058B000022804F11A0104BF0398086007D0029877
:1058C0000870020A4A70020C8A70000EC8704FF00D
:1058D0001E0CB01E0204120C4FF000000FD0611E0F
:1058E00012F0010F18BF11F8010F520807D04B78C2
:1058F000521E034411F8020F1844C0B2F7D104F845
:105900000C000CF101001FFA80FC701E0204120C46
:105910004FF000010ED0601E12F0010F18BF10F8FA
:10592000011F520806D04378594010F8023F5940F1
:10593000521EF8D104F80C1005B03046F0BD00003E
:1059400000000000002818BF002905D00278C52AF1
:1059500004BF4278102A02D04FF00000704710B404
:105960004FF0000CA0F101034FF007025C78521ECB
:10597000A44413F8024FA4440CF0FF0CF6D1827B30
:1059800094450ED1037802464FF0070C54786340DB
:1059900012F8024F6340BCF1010CF7D1C27B934275
:1059A00002D010BC0020704782780A70C2784A701A
:1059B00082884A8082790A71437AB0F8072063F3BB
:1059C0001F42837A42EA03628A60D0F80720CA60E5
:1059D000B0F80B00088210BC01207047006800EE90
:1059E000100A70470088704782780188C07862F397
:1059F0001F4141EA0060704702460020002908BFAD
:105A00007047521E11F0010F18BF12F8010F49081C
:105A100008BF70475378491E184412F8023F1844D3
:105A2000C0B2F7D170470A6802604A6842608A686B
:105A30008260CA68C2600A6902614B6943618A690F
:105A400002764FEA122C80F819C04FEA124C80F807
:105A50001AC0120EC276CA6902774FEA122C80F879
:105A60001DC04FEA124C80F81EC0120EC2770A6A9F
:105A700002624A6A42628A6A80F828204FEA122C3F
:105A800080F829C04FEA124C80F82AC0120E80F824
:105A90002B20CA6A80F82C204FEA122C80F82DC0E7
:105AA0004FEA124C80F82EC0120E80F82F200A6B9D
:105AB00080F830204FEA122C80F831C04FEA124CA7
:105AC00080F832C0120E80F833204A6B42638A6B32
:105AD00080F838204FEA122C80F839C04FEA124C77
:105AE00080F83AC0120E80F83B20CA6B80F83C2048
:105AF0004FEA122C80F83DC04FEA124C80F83EC0AD
:105B0000120E80F83F200A6C02644A6C42648A6C70
:105B10008264CA6CC2640B6D03654A6D42658A6D0E
:105B20008265CB6DC3650A6E02664A6E80F864209A
:105B30004FEA122C80F865C04FEA124C80F866C01C
:105B4000120E80F867208A6E80F868204FEA122CC7
:105B500080F869C04FEA124C80F86AC0120E80F8D3
:105B60006B20CA6E80F86C204FEA122C80F86DC052
:105B70004FEA124C80F86EC0120E80F86F200A6F48
:105B800080F870204FEA122C80F871C04FEA124C56
:105B900080F872C0120E80F873204A6F80F874206B
:105BA0004FEA122C80F875C04FEA124C80F876C08C
:105BB000120E80F877208A6F80F878204FEA122C36
:105BC00080F879C04FEA124C80F87AC0120E80F843
:105BD0007B20CA6F80F87C204FEA122C80F87DC0B1
:105BE0004FEA124C80F87EC0120E80F87F20D1F868
:105BF000802080F880204FEA122C80F881C04FEA84
:105C0000124C80F882C0120E80F88320D1F88420D4
:105C100080F884204FEA122C80F885C04FEA124C9D
:105C200080F886C0120E80F88720D1F8882080F88E
:105C300088204FEA122C80F889C04FEA124C80F875
:105C40008AC0120E80F88B20D1F88C1000F88C1FBF
:105C50000A0A42700A0C8270090EC17090207047C7
:105C600010EE101A016070470170090A4170704708
:105C700001700A0A42700A0C8270090EC1707047E6
:105C800002460020002908BF7047521E11F0010F84
:105C900018BF12F8010F490808BF704753785840E1
:105CA00012F8023F5840491EF8D170472DE9F041E3
:105CB000774C2DED028B82B0207A40F001002072EB
:105CC000E0780025012740B160227249724805F052
:105CD00081FB002818BFE7702DD009F057F802F0BB
:105CE0009DFE064601216D4802F086FE00280CBF8D
:105CF0004FF001084FF0000880214FF0904002F073
:105D00007BFE00280CBF0121002165480278424536
:105D10001CBF80F8008046604278424516D0436838
:105D2000F21A192A12D380F80180B8F1000F18BFB7
:105D300001220CD10AE05848D0F8800020B1006858
:105D4000016821F004010160E570C6E700225548B2
:105D500003788B421CBF0170466043788B4208D0A9
:105D60004368F31A192B04D34170002918BF01208E
:105D700000D100204C4E104328D0307B10B108F0E9
:105D800093F823E09FED498A7AB100F001FB416E60
:105D9000E1B10095B0F87410026F8BB2816EC06EE5
:105DA000B0EE480A07F0E8FF10E000F0F1FA816F6A
:105DB00061B10095B0F88810D0F884208BB2C16F23
:105DC000D0F88000B0EE480A07F0D6FF307B0028FC
:105DD0001CBFB6F84000002810D002F01FFEF16B87
:105DE000401A4FF47A71B0FBF1F0B6F840108142DE
:105DF00086BF081AA6F8420008F056F802F00EFE18
:105E00000646607968B1207958B9A28A4AB12771EB
:105E100065712749204805F085FE00281CBF2571C3
:105E20006771A07960B1207950B92771A5711A22E4
:105E30002049194805F076FE00281CBF2571A7717E
:105E4000E06F301A32283EBF02B0BDEC028BBDE8D5
:105E5000F081E6672079002815D108F019F927713B
:105E6000024615490C4805F05DFE002818BF257153
:105E700009D102B04FF40051BDEC028B0F48BDE8D0
:105E8000F04102F0BEBD02B0BDEC028BBDE8F08176
:105E90000000002038030020C43400200004004823
:105EA000A8000020B0000020F40600200000000040
:105EB00098050020D806002058040020000800485B
:105EC000FEE70000394A1178002908BF704700EE4C
:105ED000100AB2EE041AF8EE400A80EE810AB5EE1E
:105EE000C00AF1EE10FA07D8D168B1F9001000EE3F
:105EF000101AB8EEC00A2DE010EE101A2C4B994281
:105F000007DBD168B1F9281000EE101AB8EEC00A0C
:105F100020E0FCEEC00AD26810EE901A02EB4103BA
:105F200032F91120B3F9023000EE903AB8EEE01ADF
:105F300000EE902AF8EEE00A31EE601A00EE901AB8
:105F4000F8EE600A70EE600A00EE102AB8EEC00AA1
:105F500001EE200ADFED170A174A20EE200A10EEA4
:105F6000101A9142C8BF9FED150A04DC10EE101AFA
:105F7000134A914213D800EE900AF8EE600A30EE10
:105F8000800AB5EEC00AF1EE10FA0BD3F6EE000A65
:105F900030EE200ABCEEC00A10EE100A70479FEDEA
:105FA000090AE8E79FED080AF0E70000CC000020AE
:105FB0000000A041CDCCCC3D00004842000048424A
:105FC000000048C2000048C20000000070B4DFF8C2
:105FD00074C19CF80020002A04BF70BC704700EE1A
:105FE000100AB8EE400A9FED581AF2EE041A574A0A
:105FF000C0EE010A00EE101AB8EE401A81EE210A36
:10600000F5EEC00AF1EE10FA7DD310EE901A91422F
:106010007ADCB5EEC00A4E4AF1EE10FA75D310EEF6
:10602000101A914272DC00BFBCEEE01A11EE102A89
:10603000511CDD2934BF0C46144601EE102AB8EE7F
:10604000411A30EEC11AFCEEC00A10EE901A4B1C39
:10605000152B28BF0B4600EE901AC2EBC20202EBD2
:106060004205F8EE600ADCF810206E1832F916C00E
:1060700070EE601A00EE10CAC4EBC40C0CEB4C0CB2
:106080006144B8EEC00A32F9111000EE901AE91816
:1060900032F91110F8EEE02A00EE901A0CEB030131
:1060A00032F91110F8EEE00A02EE101A72EEC02A70
:1060B000294AB8EEC22A02EE810A32EE602A42EE86
:1060C000010A70EEC00A00EEA10ADFED220A20EEFE
:1060D000200A10EE101A9142C8BF9FED200A04DC7E
:1060E00010EE101A1E4A914225D800EE900AF8EEE2
:1060F000600A30EE800AB5EEC00AF1EE10FA1DD348
:10610000F6EE000A03E00AE00CE00EE010E030EEEC
:10611000200A70BCBCEEC00A10EE100A7047DFED1A
:10612000110A76E7DFED100A73E79FED0E0A7BE7B1
:10613000B3EE040A78E79FED0D0AD6E79FED090A52
:10614000DEE70000CC00002000401C4600005C435D
:106150000000A0410000C8420050434700504347A0
:10616000005043C70000000000005C43005043C7DC
:10617000002808BF704706490A7802704A684260E2
:1061800089688160DD2181811521C181704700000E
:10619000CC00002070B5134D0021114829706960B2
:1061A000A960E9600446296109F002FB002818BFD4
:1061B00070BD0D48E8600D482861A17A208961F31F
:1061C0001F40E17A40EA01606860A179A08861F32C
:1061D0001F40E17940EA0160A8600120287070BD8D
:1061E00000D00108CC00002040D001086AD001088E
:1061F0000148007870470000CC00002010B50C4624
:10620000A0F51051AC391CBF012010BDFF2242F295
:10621000B0410448FEF78AF9034801214461417006
:10622000002010BD28090020CC0000202DE9F047F7
:10623000434F86B07878002802BF072006B0BDE83B
:10624000F0874FF0000887F801803E4809F0B0FA67
:1062500000281CBF06B0BDE8F0873A4882798188E3
:10626000C07962F31F4141EA0060796988421EBF2C
:10627000032006B0BDE8F08787F80080CDF81080D5
:106280004FF001093A20CDF80080CDE901900520BA
:10629000039002F0A1FA04A9684602F043F904460B
:1062A00002F010FA002C46D1264E40F2964A02F037
:1062B00093FA254D06EBC40005EBC4010268436860
:1062C000002002F00DFA28B102F0FCF906B004201B
:1062D000BDE8F087641C5445ECD302F0F3F987F86D
:1062E0000080C7F80480C7F80880C7F80C802846EB
:1062F0002C46C7F8108009F05BFA28B13878D0B185
:1063000006B00020BDE8F0871048F86010483861FA
:10631000A17A208961F31F40E17A40EA0160786048
:10632000A179A08861F31F40E17940EA0160B8607B
:1063300087F80090E4E706B00420BDE8F08700008D
:10634000CC0000202809002000D0010840D001081E
:106350006AD001080C4B5B78002B19BF0029002A7A
:106360000720704742F2AC4398429DBF9A4200EB2F
:10637000020C9C45012088BF704710B5034B1844A0
:10638000FEF75DF8002010BDCC0000202809002099
:10639000004870470808002010B50A4809F09EF828
:1063A000002804BF032010BD9022064901F190008F
:1063B000FEF78AF804488168491C816008F0A0FF54
:1063C000002010BD78070020B800002030B585B04F
:1063D0000024049401203F210094CDE901010390A1
:1063E00002F0FAF904A9684602F09CF8054602F0AA
:1063F00069F9002D1EBF042005B030BD0B4808F020
:10640000DFFB0A49902201F19000FEF75DF8084891
:106410004168491C41608168491CC0E9021404704C
:10642000447008F06DFF05B0002030BD78070020F3
:10643000B800002010B40028DDF804C018BF002AFE
:1064400022D0002B18BFBCF1000F1DD0332946D23B
:10645000DFE801F0451D1D1D1D1D1D1F1F1D4545AC
:1064600045454545454545451D1F1F1F1D1F1F1D12
:106470001D1D1D1D1D1D1D1D454545451F1F1F1FA4
:106480001F1F1F1F1F1F1F0010BC07207047022463
:1064900000E00124147000229FED440A1A608CED84
:1064A000000A33291BD2DFE801F01A1D2023262918
:1064B0002C2F31331A1A1A1A1A1A1A1A1A1A3639AA
:1064C0003B3D3F424446494C4F5255585B5E1A1A79
:1064D0001A1A636567696B6D6F7174777A0010BC07
:1064E0000120704790ED000A3FE090ED010A3CE08A
:1064F00090ED020A39E090ED030A36E090ED040ACF
:1065000033E090ED050A30E080694AE0C06948E078
:1065100090ED080A29E090ED090A26E0806A40E043
:10652000C06A3EE0006B3CE090ED0D0A1DE0806B20
:1065300037E0C06B35E090ED100A16E090ED110ADF
:1065400013E090ED120A10E090ED130A0DE090EDCB
:10655000140A0AE090ED150A07E090ED160A04E02F
:1065600090ED170A01E090ED180A8CED000A19E091
:10657000406E16E0806E14E0C06E12E0006F10E016
:10658000406F0EE0806F0CE0C06F0AE0D0F8800032
:1065900007E0D0F8840004E0D0F8880001E0D0F8EB
:1065A0008C00186010BC0020704700000000000044
:1065B000002808BF704710B50446032020600B4830
:1065C0009022416861608168A160C168E1600069F2
:1065D0002061074904F11400FDF776FF04F1A400DF
:1065E000BDE8104090220349FDF76EBFB8000020BF
:1065F00078070020080800202DE9F04F0020344ED5
:10660000A5B0DFF8D0B03061307070707060B060ED
:10661000EA468046074605464FF00109C6F80C00D9
:1066200005F1006404F5FC342068B0F1FF3F2BD085
:10663000584504BF6068012826D1A068032804BF1C
:106640002069902820D1204607F004FF6169884224
:106650001AD104F11C0008F041FFA8B1B8F1000FF5
:1066600002D0E068B84208D94FF00108902204F146
:106670001C015046E768FDF727FF2846AC3500F5BA
:10668000AC70B0F5006FCBD9B8F1000F12D09022EA
:1066900069461148FDF718FF902269460F48FDF73B
:1066A00013FF902269460E48FDF70EFF86F8009012
:1066B000F76008E0084808F083FA0749902201F1E2
:1066C0009000FDF701FF08F01BFE25B0BDE8F08F3C
:1066D000B8000020464356487807002008080020EC
:1066E0009808002010B5054808F06AFA0448416887
:1066F000491C4160BDE8104008F002BE7807002048
:10670000B80000202DE9F0470027A4B0DFF8A8A0CA
:10671000E9463E463D464FF0010800BF05F10064E2
:1067200004F5FC342068B0F1FF3F28D0504504BF89
:106730006068012823D1A068032804BF206990283D
:106740001DD1204607F086FE6169884217D104F109
:106750001C0008F0C3FE90B117B1E068B04207D941
:106760000127902204F11C014846E668FDF7ACFEC3
:106770002846AC3500F5AC70B0F5006FCED9002FCF
:1067800002BF052024B0BDE8F087902269460B487F
:10679000FDF79AFE902269460948FDF795FE0948E3
:1067A00080F80080C6604168491C416008F0A8FD7F
:1067B00024B00020BDE8F087464356487807002003
:1067C00098080020B800002010B5A8B0044602A820
:1067D00008F0F6F927A8009026AB01AA214602A8E6
:1067E000FFF728FE00281EBF012028B010BD9DED38
:1067F000270A9DF804102046269A00F0A9F828B030
:1068000010BD00002DE9F04FB3B04E4808F066FE11
:10681000002802BF032033B0BDE8F08FDFF824A1C9
:106820000024DFF824B14FF4006825465FF001062C
:1068300004F1006707F5FC373868B0F1FF3F1DD061
:10684000584504BF7868012817D1B868032804BFE9
:106850003869902811D1384607F0FCFD79698842E3
:106860000BD107F11C0008F039FE30B12046AC34E2
:1068700000F5AC70B0F5006FDAD94446334F4FF0F5
:106880000408F8687D7000F1010904F1AC00B0F56E
:10689000006F12D97E7008F033FD01953F200295FC
:1068A000CDE90360059601F097FF01A902A801F068
:1068B00039FE044601F006FF74BB04F1AC00B0F5EC
:1068C000006F29D8FF22AC216846FDF72FFE032078
:1068D000CDF800B0CDE901609020CDE903900246EB
:1068E000514607A8FDF7F0FD684607F0B3FD04F137
:1068F000006B0BF5FC3BEA46059001F06DFF0024B0
:106900000AEBC4000BEBC401D0E90023002001F026
:10691000E7FE30B101F0D6FE454633B02846BDE86B
:10692000F08F641C162CEBD301F0CCFE05499022AD
:1069300001F59070C7F80C90FDF7C6FD3E7008F0A9
:10694000DFFCEAE77807002046435648B8000020FD
:10695000F0B506462DED028B0125614FA5B014461A
:10696000B0EE408A332E6ED2DFE806F0B71A1A1A5C
:106970001A1A1A1C1C1AB7B7B7B7B7B7B7B7B7B751
:106980001A1C1C1C1A1C1C1A1A1A1A1A1A1A1A1A5D
:10699000B7B7B7B71C1C1C1C1C1C1C1C1C1C1C00E7
:1069A000022000E02846814218BF02246FD19022C5
:1069B00039466846FDF788FD332E44D2DFE806F0FD
:1069C0008D1A1D202326292C2E308D8D8D8D8D8D99
:1069D0008D8D8D8D3336383A3C3F4144474A4D507A
:1069E0005356595C8D8D8D8D5F616365686A6C6EE1
:1069F000707274008DED008A57E08DED018A54E0CD
:106A00008DED028A51E08DED038A4EE08DED048A12
:106A10004BE08DED058A48E0069446E0079444E09B
:106A20008DED088A41E08DED098A3EE00A943CE054
:106A30000B943AE00C9438E08DED0D8A35E00E941D
:106A400033E00F9431E048E08DED108A2DE08DEDBC
:106A5000118A2AE08DED128A27E08DED138A24E059
:106A60008DED148A21E08DED158A1EE08DED168ADC
:106A70001BE08DED178A18E08DED188A15E019944A
:106A800013E01A9411E01B940FE01C940DE01FE03A
:106A90001D940AE01E9408E01F9406E0209404E090
:106AA000219402E0229400E02394684608F016FD49
:106AB000002808BF03240BD0902269463846FDF712
:106AC00003FD084800244168491C416008F018FC97
:106AD00025B02046BDEC028BF0BD2C46F8E7000047
:106AE00078070020B8000020014801F0A6BB000094
:106AF000B8350020014801F0A0BB00005835002047
:106B0000014801F09ABB00005C330020014801F00D
:106B100094BB0000BC330020704772B6FEE7000053
:106B2000154A117F1548012918BF03290FD10368A1
:106B300023F400730360036843F400630360036895
:106B400023F400630360036843F4007303600229C5
:106B500018BF03290BD1016841F48051016001681D
:106B600021F480510160016841F4806101604FF0BF
:106B70000000107770470000F8000020002002405D
:106B800070B5064601F04AFF154C0546206910F421
:106B9000803F0AD001F042FF401BB04201D90320E0
:106BA00070BD206910F4803FF4D120694CF2FA31B5
:106BB00008400CD00B494A6802434A60002109B1E1
:106BC000A169A161002818BF2061012070BD206962
:106BD00010F0010F1CBF01202061002070BD0000DB
:106BE00000200240F8000020F8B50025044600957A
:106BF00090F858000E46012804BF0220F8BD01207D
:106C000084F858002046FDF781FD0200E06D18BFB2
:106C100040F0100029D120F4885040F00200E065D7
:106C20002068816806F0804321F03F0121F0404157
:106C3000194341F0004181600E4B20688168C90F03
:106C40000ED00099491C00918B42F7D8E06D20F0DE
:106C5000020040F01000E06584F858500120F8BDB3
:106C6000E06D20F0020040F00100E06584F858502B
:106C70001046F8BD02DE04002DE9F00790F8582018
:106C800000249BB0012A01BF02201BB0BDE8F00721
:106C90007047012280F85820002317931893026848
:106CA000DFF848C1B2F1A04F04BFCDF800C065467F
:106CB00012D0A2F1A045B5F5806504BF4C4D0095FA
:106CC0000AD0C16D41F02001C16580F858301BB079
:106CD0000120BDE8F0077047AD689668C5F38005F0
:106CE00016F0040F08BF002D0DD0C16D41F020013A
:106CF000C1654FF0010400BF80F858301BB020463A
:106D0000BDE8F0077047B2F1A04F1ABF6245394A9B
:106D1000394A4FF0A045D1F80090384E384FDFF88F
:106D2000E480B9F1000F3AD0D2F8089090F838A07A
:106D300029F4604949EA4A39D1F804A049EA0A0924
:106D4000C2F80890D0F80090B9F1A04F18BFE14503
:106D500008D1D5F808C0D5F808514CEA050C0CF05C
:106D6000010C0AE0D6F800C03D684CEA050CD8F8E2
:106D700000504CEA050C0CF0010CBCF1000FBBD12B
:106D8000D1F800C089684CEA0101D2F808C02CF0A3
:106D90001F0C2CF4706C41EA0C019160ACE7916817
:106DA00021F4604191600168B1F1A04F18BF6145C5
:106DB00007D1A968D5F808C141EA0C0101F0010129
:106DC0000AE03168D7F800C041EA0C01D8F800C0E9
:106DD00041EA0C0101F00101002902BF916821F094
:106DE0001F0121F4706187D1D7E700000001005036
:106DF0000005005000070050000300500804005038
:106E000008050050080600502DE9F00785B0002362
:106E1000029390F858209C46012A01BF022005B039
:106E2000BDE8F0077047012480F858400268956873
:106E300015F0040F0BD0C16D41F02001C165012395
:106E400080F858C005B01846BDE8F0077047D1E992
:106E500000650C2707EA95173A44176B05F01F05E4
:106E60004FF01F0808FA05F8C6F3846627EA0807FA
:106E700006FA05F53D431563026895689668C5F303
:106E80008005C6F3C00655EA06074FF004054FF02B
:106E9000070658D18F68B7F1004F5BD0D1F800805A
:106EA00005EAD8594A44D2F81490C8F3045806FAAF
:106EB00008FA29EA0A0907FA08F749EA07075761B1
:106EC0000268576927F00047576102684F69D2F896
:106ED0000C80C8F3C1084FEA480807FA08F80F69A0
:106EE000042F4FD002EB8702D1F80090176EDFF825
:106EF000F8A309F0F84907EA0A0749EA080847EA47
:106F0000080747F0004717660268D1F810808F69BC
:106F100002EB8802D2F8608028F0807848EA070700
:106F200017660F7F0268D1F81080012F0CBF4FF059
:106F30000077002702EB8802D2F8608028F0007802
:106F400048EA070717660268976817F0010F40F0D4
:106F500039819FE00F684FF0000805EAD7594A448D
:106F6000D2F81490C7F3045706FA07FA29EA0A0977
:106F700008FA07F749EA070757610268576947F0B7
:106F80000047A1E7176E00277F037F0B176E07F0FE
:106F9000F8471ABF97FAA7F7B7FA87F84FEA976842
:106FA0000F68C7F31209B9F1000F0EBFC7F384676A
:106FB00097FAA7F7B7FA87F7B84503D1176E27F006
:106FC000004717660268576E0027121D7F037F0B6C
:106FD000176E07F0F8470EBF4FEA976897FAA7F7C2
:106FE000B7FA87F80F68C7F31209B9F1000F0EBF9F
:106FF000C7F3846797FAA7F7B7FA87F7B84503D1BD
:10700000176E27F0004717660268976E0027083250
:107010007F037F0B176E07F0F8470EBF4FEA9768A4
:1070200097FAA7F7B7FA87F80F68C7F31209B9F10B
:10703000000F0EBFC7F3846797FAA7F7B7FA87F771
:10704000B84503D1176E27F0004717660268D76E60
:1070500000270C327F037F0B176E07F0F8470EBF37
:107060004FEA976897FAA7F7B7FA87F80F68C7F358
:107070001209B9F1000F0EBFC7F3846797FAA7F79B
:10708000B7FA87F7B84504BF176E27F000477FF4BB
:107090005AAF57E791F80C800F68D2F8B090C7F359
:1070A000120A29EA0A09DFF844A208F018082AFAA5
:1070B00008F808EA070749EA0707C2F8B070CA6883
:1070C000A2F18047B7F5FE077CD10A68D0F80080AE
:1070D00012EA0A071ABF92FAA2F7B7FA87F7C2F3C1
:1070E00084677F1C07F01F07092FC2F312072AD8F5
:1070F000002F1ABF92FAA2F7B7FA87F7C2F3846794
:1071000007F1010707F01F0704FA07F70EBFC2F3E4
:10711000846492FAA2F4B4FA84F404F1010404F051
:107120001F0447EA84640EBFC2F3846292FAA2F29B
:10713000B2FA82F202F1010202F01F0202EB4202F5
:1071400044EA02522EE0002F0EBFC2F3846792FA87
:10715000A2F7B7FA87F707F1010707F01F0704FA4C
:1071600007F70EBFC2F3846492FAA2F4B4FA84F46F
:1071700004F1010404F01F0447EA84640EBFC2F363
:10718000846292FAA2F2B2FA82F202F1010202F0F1
:107190001F02574F02EB420207EB025244EA02027F
:1071A00042F0007205EAD25444448F686569C2F324
:1071B000045206FA02F625EA060507FA02F245EA43
:1071C000020262610D684B490D423FF439AE04681A
:1071D000494E4A4A4A4FB4F1A04F16BFB442114635
:1071E0003946896805F1705801F0E07118F55F08BB
:1071F0001ABFDFF81081454511F4000F1FD005F1CB
:10720000605818F52E0808BF11F0807F52D005F1A4
:10721000505818F5F80808BF11F4800F7FF410AE2D
:10722000B4423FF40DAEB4F1A04F18BF3A4641F45A
:107230008001946824F0E0742143916000E6B4F189
:10724000A04F08D0A4F1A045B5F5C0657FF4F8AD16
:10725000B44218BF3A4641F40001946824F0E07447
:10726000214391602849294A0968B1FBF2F1491C80
:1072700001EB41018900029100913FF4E1ADB1F1D0
:10728000004F2BD20029D8BF002105DD11F00101EC
:1072900002D0029A521E0292009A491C521C91423C
:1072A000BFF6CEAD029C891C641E641E02949142FE
:1072B000F8DBC5E5B4421CBFA4F1A045B5F5A06557
:1072C0003FF4BEADB4F1A04F18BF3A4641F0807113
:1072D000946824F0E07421439160B1E50299491E5D
:1072E0000291FCD1ACE5000000F0FF03FFFF0700B6
:1072F000000020FE00000880000100500003005044
:10730000000700501000C09034010020400D030021
:10731000704770477047000070B584B04FF00005AB
:1073200004002E46029502BF012004B070BDE06D3E
:1073300028B9204600F036F9266684F8586020689F
:107340008168C1F3407129B1816821F03F0121F0CA
:107350002041816020688168C1F3007159BB816858
:1073600021F03F0121F0004141F0805181608348CC
:1073700083490068B0FBF1F04000801C029000904F
:1073800019D0B0F1004F80F0F3800028D8BF002062
:1073900005DD10F0010002D00299491E029100990A
:1073A000401C491C884206DA029A801C521E521E5A
:1073B00002928842F8DB20688168C1F3007141B90C
:1073C000E16D41F01001E165216E41F0010121669E
:1073D00001258168E26DC1F3800112F0100F08BF32
:1073E000002908D0E06D40F01000E0654FF0010585
:1073F00004B0284670BDE16D21F4807141F00201B6
:10740000E165816811F0010F1AD15E49B0F1A04F1A
:1074100018BF884207D14FF0A0429368D2F80821E4
:1074200043EA020209E0584A1268584B1B6842EAD4
:107430000302574B1B6842EA030212F0010F10D0FF
:10744000E168E06B627F40EA0100A16841EA4231F5
:1074500040EA010094F8241040EA0140012914D1C7
:107460000DE0B0F1A04F1ABF88424A484A4861680F
:10747000826822F47C1242EA01018160E0E7218DFA
:10748000464A02EB414141EA0000E16A31B101F4B0
:107490007871226B41EA000042EA00002168CA6864
:1074A0003F4B02EA030242EA0000C860206801691B
:1074B000626B21F0406141EA02010161206881684C
:1074C000C1F3C00189BB217F94F838204FEA813194
:1074D00041EA4201C26822F0020222F4804242EAFA
:1074E0000101C16020690028206801690AD041F4C7
:1074F000803101612068D0F8C01022696FF30D015E
:10750000114307E021F4803101612068D0F8C010F8
:107510006FF30D01C0F8C01094F8400001280CD0A2
:107520002068016921F0010101616069012820687A
:10753000016B21F00F0113D10FE0D4E911010843D1
:10754000D4E91312114340EA0102206801696FF384
:107550008A01114341F00101E6E7226A521E1143FC
:107560000163E06D20F0020040F00100E0653FE7BC
:107570000298401E0290FCD11DE70000340100205B
:10758000400D0300000100500804005008050050A1
:107590000806005000070050000300500000FEFFE6
:1075A0000740F0FF2DE9F04F9BB0002506461595EA
:1075B000169517951895542168461995FCF7BEFF46
:1075C0004FF4004130688A03A44FA54C4FF0800966
:1075D0004FF4807A4FF4806B4FF40058B0F1A04F15
:1075E00039D0A0F1A043B3F5807325D04900CA0378
:1075F000A0F1A043B3F580637ED0A0F1A043B3F522
:10760000A06300F0D080A0F1A043B3F5C0631CBF1D
:107610001BB0BDE8F08F68461292009102F008FF9F
:10762000002818BFFFF779FA7868401C78600128B5
:1076300040F0FD8000F0F3B868461192009102F02E
:10764000F7FE002818BFFFF768FA3868401C38605A
:10765000012847D13EE068461192009102F0E8FE11
:10766000002818BFFFF759FA3868401C3860012815
:1076700007D1E06C40F40050E064E06C00F400508E
:107680001A90E06C40F00100E064E06C15A900F095
:1076900001001A900C2015900320CDE916054FF03B
:1076A000904001F0B1F8704C6E4804F10C0120607C
:1076B0000520C4E901052020C4E9070881E8200E5F
:1076C000204600F029FE00286CD17465A6621BB02C
:1076D000BDE8F08FE06C40F40050E064E06C00F432
:1076E00000501A90E06C40F00100E064E06C00F0A3
:1076F00001001A90432000E01BE015900320CDE923
:10770000160515A94FF0904001F07EF8584C5748E7
:1077100004F10C0120602420C4E901052020C4E903
:10772000070881E8200E204600F0F6FD0028CCD0A6
:1077300090E068461292009102F07AFE002818BF8D
:10774000FFF7EBF97868401C7860012807D1E06CFE
:1077500040F48040E064E06C00F480401A90E06CFB
:1077600040F00200E064E06CCDF8548000F00200CC
:107770001A900320CDE9160515A93E4801F044F8FA
:107780003E4C3D4804F10C0120602520C4E9010570
:107790002020C4E9070881E8200E204600F0BCFD47
:1077A000002892D056E068461292009102F040FE06
:1077B000002818BFFFF7B1F97868401C78600128ED
:1077C00007D1E06C40F48040E064E06C00F480405D
:1077D0001A90E06C40F00200E064E06C15A900F043
:1077E00002001A904FF4404015900320CDE9160591
:1077F000204801F009F8234C214804F10C012060D5
:107800002620C4E901052020C4E9070881E8200EEC
:10781000204600F081FD00283FF457AF1AE0E06CED
:1078200040F48040E064E06C00F480401A90174C13
:10783000154804F10C0120602720C4E9010520202F
:10784000C4E9070881E8200E204600F065FD002805
:107850003FF43BAFFFF761F937E70000E400002099
:107860000010024008000240F42F00201C000240DB
:10787000543000200004004808040240B4300020C6
:107880001C040240143100203004024074310020F6
:107890002DE9F04704460068454F90468946B0F10F
:1078A000A04F16BFB84243494349896801F01F05FC
:1078B000816811F0040F78D194F85810012974D020
:1078C000012184F85810A0F1A041B1F5C0610CBFAE
:1078D00001200020401E28424FF0000618BF052D51
:1078E00006D0092D1EBF012084F85860BDE8F0873E
:1078F0002046FCF74BFF00281CBF84F85860BDE809
:10790000F087E06D20F0010020F4606040F48070AA
:10791000E0652068B84208BF4FF0A04106D0A0F152
:10792000A041B1F5A0610CBF24490146814218BFB6
:10793000002D03D1E06D20F48010E065E06D10F4BF
:10794000805F08BF266603D0206E20F00600206608
:10795000616D1B48C862616D1A480863616D1A4801
:10796000486321684FF01C00086084F85860206864
:10797000416841F0100141602068C16841F0010197
:10798000C1602068434600F140014A46606D00F046
:1079900063FD21688A6822F03F0222F0004242F033
:1079A00004028A60BDE8F087FFE70220BDE8F087A7
:1079B0000001005000030050000700500004005078
:1079C0006746000803470008E94600082DE9F04F24
:1079D000040085B04FF000000546029004D02168F5
:1079E000096811F0004F02D0012500F014B9617F41
:1079F00021B920772062204600F034F92068016820
:107A0000D4E901321A43D4F80CC0636901F40001CF
:107A100043EA0C031A4323691A430368DFF808C2D8
:107A200003EA0C031A4302602068026812F4000F94
:107A300026D029BB7D497E4A0968B1FBF2F1491C79
:107A400001EB810189000291009119D0B1F1004F41
:107A500080F0E5800029D8BF002105DD11F001018B
:107A600002D0029A521E0292009A491C521C914264
:107A700006DA029B891C5B1E5B1E02939142F8DBB7
:107A8000DFF8B0C1A0F18041B1F5813108BF4FF4FA
:107A900000111BD06849884208BF4FF4800115D0FF
:107AA0006649884208BF4FF000510FD064498842B0
:107AB00008BF4FF0804109D06249884208BF4FF0AB
:107AC000004103D060450CBF01210221D4F8189079
:107AD0005D4E5E4F5E4A19F0030FA6F10408A7F150
:107AE000040374D019F0100F06F1040907F1040A19
:107AF0000DD0604516BF9042D9F80000DAF80000BA
:107B000040EA01000DD100BFC9F800000BE060455C
:107B10001ABF9042DAF80000D9F8000020EA01000C
:107B2000F2D0CAF80000207EDFF8289110F0200F74
:107B30004948D4F800A00ED0E24513BF9245D9F8C9
:107B400000000843D0F8009018BF49EA01090ED19F
:107B5000C9F800000DE0E2451DBF9245D0F8009045
:107B600029EA0109D9F8000008BF8843F0D0C0F81D
:107B700000902068604516BF904238483848016040
:107B8000207E10F0020F206809D0604516BF904299
:107B90003068386840EA010009D1306008E060458B
:107BA0001ABF90423868306820EA0100F5D038608A
:107BB000207E10F0010F20680AD0604516BF904269
:107BC000D8F80000186840EA010009D01DE00AE07A
:107BD000604518BF904215D1D8F8000020EA010096
:107BE000C8F8000012E060451ABF9042386830685B
:107BF00020EA010014BF386030602068604518BF7B
:107C00009042E9D0186820EA01001860607F0028DF
:107C100004BF01206077284605B0BDE8F08F0299C7
:107C2000491E0291FCD12BE70F7E00FF340100209A
:107C3000400D03001402014004020140080201400B
:107C40000C020140100201402404014004040140E0
:107C5000180201402C0401400C040140340401408E
:107C60001404014000B587B00021009101910291F8
:107C7000039104910068A0F18041B1F581311CBFEE
:107C800007B000BD0948C16C41F00101C164C06C7E
:107C9000694600F001000590022000900320019049
:107CA0004FF0904000F0B0FD07B000BD0010024062
:107CB00083B001004FF00000019007D00A681368FC
:107CC00013F0004F04BF4B7F012B03D04FF0010096
:107CD00003B07047136843F0010313604FF00202D2
:107CE0004A771749174A0968B1FBF2F111EB810194
:107CF0000191009104BF03B07047B1F1004F19D258
:107D00000029D8BF002105DD11F0010102D0019A40
:107D1000521E0192009A491C521C9142A4BF03B00A
:107D20007047019B891C5B1E5B1E01939142F8DB2F
:107D300003B070470199491E0191FCD103B070470F
:107D40003401002080841E00704700002DE9F05FA0
:107D500093460D4604004FF0000912BF002D01208C
:107D6000BDE8F09F6079012804BF0220BDE8F09FC4
:107D70004FF0010884F8058002202071A8680BF0FC
:107D80001006042850D100F049FE074620684FF045
:107D9000030ABBF1000F406B15D010F0004F2DD03F
:107DA00000F03CFEC01B012823D92068406B10F076
:107DB000004F1ED0206940F00800206184F804A024
:107DC0000320BDE8F09F10F4004F0ED000F026FE17
:107DD000C01B012804D92068406B10F4004FE9D182
:107DE0002068406B10F4004FF0D12168686A086485
:107DF00007E02068406B10F0004FD1D12168686A1D
:107E000048642068816C40F2FF32B2409143AA6A14
:107E1000B240114381642068C16CFF22B24091439B
:107E2000EA6AB2401143C164E869012809D12168B6
:107E3000886B1F22B24020EA0202286AB040104339
:107E400088632068C06B0721B14020EA0101A8695E
:107E5000012805D002281ABF68690028012001D036
:107E60004FF000006B69AA6842EA030242EA000090
:107E70004FF4807202FA06F221EA020229790129FE
:107E80000CBF4FF48071002101434FF40070B040EB
:107E900022EA00006A79012A0CBF4FF40072002226
:107EA00042EA010A20F440472868022818BF074325
:107EB00034D000BF21680AFA06F03843C86320684E
:107EC00001684FF48042B24091430160206801682C
:107ED00040F6FE72B2409143EA68B240114301603D
:107EE00020680168C022B24091430160287B297C50
:107EF000C0F3830001F03C0140EA81112068026E6A
:107F000040F60F73B3409A43B1401143016684F8C1
:107F10000480002060714846BDE8F09F02F02EFD0D
:107F20000549884288BF47F40047C3D803498842BF
:107F300088BF47F48047BDE70068890900B4C404DE
:107F400070472DE9F041044600680668456B16F459
:107F5000005F4FF0040718BF15F4005F0FD02771C2
:107F6000216941F0010121614FF400514163206812
:107F7000016821F4805101602046FFF7E1FF16F00F
:107F8000005F14BF15F0005FBDE8F0812771206924
:107F900040F00200206121684FF0005048632068E3
:107FA000016821F0805101602046BDE8F041FFF7F3
:107FB000CBBE002804BF0120704770B5044600798D
:107FC000002518B96571204600F008F802202071DC
:107FD000256101202071002070BD000008B50068F7
:107FE000A0F1A041B1F5006118BF08BD0948C16CFE
:107FF00041F48031C164C06C002200F480300090F4
:108000000321362002F068F9BDE80840362002F06E
:1080100053B900000010024081B04FF0000CCDF8C1
:1080200000C0002802BF012001B070470068D0F8EE
:108030003CC00090002910440CBF08301430009060
:108040000360002001B0704770B483B0002801BF06
:10805000012003B070BC70474279012A01BF0220A1
:1080600003B070BC70470124447102260671026897
:10807000136801F0100504FA05FC43EA0C031360D1
:10808000254A264B1268B2FBF3F2521C0192009271
:108090001DD0B2F1004F39D2002AD8BF002205DD31
:1080A00012F0010202D0019B5B1E0193009B521C47
:1080B0005B1C9A420BDA00BFDDF804C0921CACF1E5
:1080C000010CACF1010CCDF804C09A42F4DB00299C
:1080D00001680A6811D002F4781206FA05F39A4290
:1080E00004BF4A6842F0020200D14A6004710021D4
:1080F000417103B0084670BC704702F03E02022A8C
:1081000004BF4A6842F00102F0D1EEE7019A521E24
:108110000192FCD1DBE7000034010020400D030098
:108120000022002804BF0120704790F82510012389
:10813000022903D00421C16301222EE00168D1F895
:1081400000C02CF0010CC1F800C00168D1F800C0DB
:108150002CF00E0CC1F800C0816CD1F800C02CF4DA
:10816000807CC1F800C090F84410D0F840C001F005
:108170001F0103FA01F1CCF80410D0E9131CC1F877
:1081800004C0416D49B1D1F800C02CF4807CC1F825
:1081900000C0D0E9161CC1F804C080F825300021C9
:1081A00080F824101046704710B590F82520002460
:1081B00001212346022A07D00422C26380F8251039
:1081C00080F82430012436E00268D2F800C02CF098
:1081D000010CC2F800C00268D2F800C02CF00E0CEE
:1081E000C2F800C0826CD2F800C02CF4807CC2F8C7
:1081F00000C090F84420D0F840C002F01F0201FAFD
:1082000002F2CCF80420D0E9132CC2F804C0426D6D
:108210004AB1D2F800C02CF4807CC2F800C0D0E98A
:10822000162CC2F804C080F8251080F82430816B29
:10823000002918BF8847204610BDF0B4016CD1F862
:1082400000C001680B6890F8442002F01F0404226B
:1082500002FA04F515EA0C0F18BF13F0040F14D03E
:108260000B6813F0200F03D10B6823F004030B609D
:1082700090F8441001F01F0102FA01F1026C516004
:10828000016B002946D1F0BC7047022606FA04F2C1
:1082900012EA0C0F4FF000054FF0010218BF13F067
:1082A000020F17D00B6813F0200F05D10B6823F0D5
:1082B0000A030B6080F8252090F84410026C01F04E
:1082C0001F0106FA01F1516080F82450C16A09BB10
:1082D000F0BC7047082606FA04F414EA0C0F12BF2B
:1082E00013F0080FF0BC70470B6823F00E030B600F
:1082F00090F84410036C01F01F0102FA01F159607B
:10830000C26380F8252080F82450416B002904BF07
:10831000F0BC7047F0BC084770B4002802BF0120D1
:1083200070BC7047DFF804C10168414A614508D25A
:10833000404B0B44A2FB03431B099B0043643E4B91
:1083400007E03E4B0B44A2FB03431B099B00436425
:108350003B4B0364022380F825300B68D0E90245CB
:108360002C43D0E9045635432C4385696FF30E1333
:108370002C43C5692C43056A2C4323430B600368D7
:10838000634506D2DBB2083BA2FB03322D4912093A
:1083900006E0DBB2083BA2FB03322B49120908328C
:1083A000436C23F003030B442849C0E9123102F067
:1083B0001F01012202FA01F10165D0F808C0002175
:1083C000BCF5804F08BF416090F804C00CF07F0CF2
:1083D000C3F800C0D0E9133CC3F804C04368A3F15C
:1083E000010CBCF1030F15D8DFF864C003F07F0364
:1083F0000CEB830C5B1E03F01F03164C02FA03F315
:10840000C365C0E915C4CCF80010D0E9163CC3F828
:1084100004C002E041658165C165C16380F8252023
:1084200080F8241070BC002070470000080402404F
:10843000CDCCCCCCF8FFFDBF00000240F8FBFDBF67
:108440000004024000080240200802408008024068
:10845000FC0802404009024070B490F824404FF0FC
:10846000000C012C02BF022070BC7047012480F870
:10847000244090F825600025012E1CBF80F8245070
:108480004FF0020C02D070BC60467047022680F8A4
:108490002560C56305682E6826F001062E60D0E9C8
:1084A00013566E60456D002D1CBFD0E916566E60E8
:1084B00090F8445005F01F05AC40056C6C600468F2
:1084C00063608368102B036803BF9A600268D16001
:1084D00099601CBF0168CA60016B002901680A68C5
:1084E00018BF42F00E0206D122F004020A600168B1
:1084F0000A6842F00A020A60816C0A6812F4803F3E
:1085000003D00A6842F480720A60416D19B10A68AA
:1085100042F480720A600068016841F00101016064
:10852000B1E700002DE9F047644F064689463878E8
:10853000012804BF0220BDE8F08701253D704FF4FB
:108540007A70FEF71DFB4FF0000800287ED1C7F8B7
:1085500004805B4C216811F4007F216801F4806184
:1085600009D0002908BF3D7710D0216821F480612F
:108570002160032109E0002908BF87F81C8005D08D
:10858000216821F480612160022139773168012955
:1085900017D04FF0FF31C9F80010D6E90251294435
:1085A000A9425FD97168206A10F4800F31D06069E8
:1085B00011F0010F0CBF40F4006020F40060606116
:1085C0002BE07068216A11F4800F0ED010F0010FBB
:1085D00003D0616941F00401616110F0020F1CBF1A
:1085E000606940F4004005D003E0606948F204018E
:1085F00008436061606940F4803060614FF47A70D4
:10860000FEF7BEFA616921F0040121F400416161C5
:1086100028E0606920F400606061606920F47E7188
:10862000E8B241EAC0006061606940F00200606148
:10863000606940F4803060614FF47A70FEF7A0FA10
:10864000616921F4FD7121F4007100E031E06161A4
:1086500010B1C9F8005005E0D6E9021211446D1CB2
:10866000A9429FD8397F012918BF03290FD1226859
:1086700022F400722260226842F4006222602268C2
:1086800022F400622260226842F400722260022911
:1086900018BF03290BD1216841F480512160216862
:1086A00021F480512160216841F48061216087F8C4
:1086B0001C8087F80080BDE8F0870000F8000020EB
:1086C00000200240054901204A6942F000424A6107
:1086D000496911F0004F18BF002070470020024088
:1086E0002DE9F05F3A4E0746914630789A460D469E
:1086F000012804BF0220BDE8F09F012030704FF434
:108700007A70FEF73DFA5FEA000B4FF0000859D18E
:10871000C6F804802F4C206810F4806F08BF86F8DC
:108720001C8005D0206820F4806020600220307713
:1087300027B1012F18BF022F12D031E0606940F03D
:1087400001006061C5F80090BFF36F8FC5F804A009
:108750004FF001054FF47A70FEF712FA83462CE0D1
:10876000606940F480206061EFF3108072B6D9F840
:1087700000102960D9F80430291D6B6009F104024A
:108780005FF01F03D2F804C0C1F804C052F808CF4C
:1087900041F808CF5B1EF5D180F31088022F05D079
:1087A0004FF47A70FEF7ECF9834609E04FF4802528
:1087B0004FF47A70FEF7E4F983466069A84360617C
:1087C000FEF7AEF986F800805846BDE8F09F00003D
:1087D000F800002000200240084900204A6912F0F9
:1087E000004F08BF7047064A8A60064A8A60496996
:1087F00011F0004F18BF0120704700000020024018
:1088000023016745AB89EFCD0B680022002B08BF21
:1088100070472DE9F84F754D734C4FF001094FF03B
:10882000030C4FF00F0A05F1040E00BF0B6809FAA4
:1088300002F6334000F0D0800F7907F00307012FD4
:1088400018BF022F19D1D0F808804FEA42070CFA5E
:1088500007FB28EA0B08D1F80CB00BFA07F747EA38
:1088600008078760476827EA06060F79C7F30017ED
:1088700007FA02F747EA060646604E683CEA060633
:1088800004BF8E68012E0DD0C7684FEA42060CFA6D
:1088900006F827EA0807D1F8088008FA06F646EA3B
:1088A0000706C6600E7906F00306022E11D1D6081F
:1088B00000EB8607D7F820805607F60E0AFA06FB6B
:1088C00028EA0B08D1F810B00BFA06F646EA0806BB
:1088D0003E62066857000CFA07F826EA080691F887
:1088E000048008F0030808FA07F73E4306604E6864
:1088F00016F4403F70D0266E46F001062666266EBE
:1089000006F00106009622F0030606F1804707F5FF
:108910008037BE684FEA82784FEA18780AFA08FB77
:1089200026EA0B06B0F1904F08BF4FF0000B28D09D
:10893000A0F1904BBBF5806B08BF4FF0010B20D02E
:10894000A0F1904BBBF5006B08BF4FF0020B18D0A5
:10895000A0F1904BBBF5406B08BF4FF0030B10D05C
:10896000A0F1904BBBF5805B08BF4FF0040B08D023
:10897000A0F1904BBBF5A05B0CBF4FF0050B4FF087
:10898000060B0BFA08F848EA0606BE602E684F6828
:108990009E4317F4801F18BF1E432E60DEF8006050
:1089A0004F689E4317F4001F18BF1E43CEF80060A7
:1089B0000F4F3E68D1F804809E4318F4003F18BF63
:1089C0001E433E600B4F3E68D1F804809E4318F46E
:1089D000803F18BF1E433E600B68521CD3407FF49B
:1089E00025AFBDE8F88F00000010024008040140E8
:1089F00004040140000401400069084018BF012040
:108A00007047426921EA0203114043EA0141816152
:108A10007047002A14BF81618162704701488068F5
:108A200070470000EC00002090F8DD30022B1BBFE7
:108A300090F8DC30012B0220012314BF80F8DC30D9
:108A4000704710B44FF0020C80F8DDC04FF0000CFE
:108A500020294DD00CDC042934D004DC012925D098
:108A6000022929D00EE0082932D0102938D009E097
:108A7000402943D0802947D0B1F5807F4AD0B1F555
:108A8000007F4FD0072180F8DD1080F8DCC000BFE8
:108A900090F8DD10072902BF012010BC704780F854
:108AA000DD3080F8DCC010BC002070470168D1F8D0
:108AB000004462F3040410E00168D1F8004462F35A
:108AC0008A140AE00168D1F8004462F3103404E02B
:108AD0000168D1F8004462F39644C1F80044D7E736
:108AE0000168D1F8004462F31C64C1F80044CFE788
:108AF0000168D1F8044462F3040410E00168D1F87D
:108B0000044462F38A140AE00168D1F8044462F371
:108B1000103404E00168D1F8044462F39644C1F8CB
:108B20000444B5E70168D1F8044462F31C64C1F859
:108B30000444ADE790F8DD30022B19BF90F8DC302B
:108B4000012B022070472DE9F001012580F8DC504F
:108B5000022380F8DD300368D3F88043D3F8FCC3E8
:108B6000002620296CD00CDC04293AD004DC012931
:108B700021D0022929D00EE008293ED0102948D062
:108B800009E040297ED080297DD0B1F5807F7BD05F
:108B9000B1F5007F79D0072280F8DD2080F8DC6015
:108BA00090F8DD20072A71D010293CBF0168C1F878
:108BB000804363D265E0176824F4E02407F4E027DB
:108BC00052683C43C3F8BC23EAE717684FF46018C7
:108BD00024F4601408EAC70752683C43C3F8C02372
:108BE000DEE717684FF0E07824F0E07408EA8717B2
:108BF00052683C43C3F8C423D2E717684FF060685B
:108C000024F0606408EA472752683C43C3F8C8234D
:108C1000C6E717682CF0070CC7F3024747EA0C0CAD
:108C2000D3F8F87327F01F07C3F8F8730368D3F875
:108C3000F873127902F01F023A43C3F8F823AFE742
:108C40002CF07001D2F800C0702404EA1C3C4CEAFD
:108C5000010CD3F8F81321F47871C3F8F813016804
:108C6000D1F8F83352684FF4787404EA42121A4388
:108C7000C1F8F82390F8DD20072A7AD00168C1F8FE
:108C8000FCC304E00BE025E03FE057E071E080F832
:108C9000DD5080F8DC60BDE8F00100207047176807
:108CA0004FF4E0682CF4E06C08EA172747EA0C0C54
:108CB000D3F8F87327F4F847C3F8F8730368D3F8C8
:108CC000F87352684FF4F84808EA82223A43C3F82E
:108CD000F82365E717684FF4E0482CF4E04C08EA05
:108CE000171747EA0C0CD3F8F87327F4F817C3F8F2
:108CF000F8730368D3F8F87392884FF4F81808EA09
:108D000002423A43C3F8F8234AE717682CF4E02CF0
:108D100007F4E02747EA0C0CD3F8F87327F07877CC
:108D2000C3F8F8730368D3F8F87392884FF0787833
:108D300008EA42523A43C3F8F82331E717684FF480
:108D4000E0082CF4E00C08EA071747EA0C0CD3F80B
:108D5000F87327F0F847C3F8F8730368D3F8F8738B
:108D600012794FF0F84808EA82623A43C3F8F823D0
:108D700016E7BDE8F0010120704770477047704763
:108D800070477047704770477047704790F8DC2015
:108D9000012A04BF02207047012280F8DC20022350
:108DA00080F8DD30B1F1FF3F1AD00368D3F8CCC3AF
:108DB0004CF0020CC3F8CCC30368D3F8CCC32CF03E
:108DC0000C0C4CEA0101C3F8CC130168D1F8CC3388
:108DD00043F00103C1F8CC3380F8DD200020704758
:108DE0000168D1F8CC3323F00203C1F8CC33016819
:108DF000D1F8CC3343F00103C1F8CC33ECE70000E9
:108E000090F8DD30022B19BF90F8DC30012B0220E6
:108E1000704730B4012380F8DC304FF0020C80F84A
:108E2000DDC0B2F800C094880CF4E05CC4F3080420
:108E300044EA0C0C14896FF07E4504F4007444EA93
:108E40000C0C148A04F4804444EA0C0C948904F455
:108E5000004444EA0C0C948A05EA044444EA0C0CED
:108E6000946904F0007444EA0C0C146AD26904F0AA
:108E7000804444EA0C0C02F0004242EA0C02B8249E
:108E8000D0F800C004EBC1115CF80140064D2C4045
:108E900022434CF8012080F8DD30002180F8DC10FE
:108EA00030BC0846704700000020003C7047704707
:108EB0007047704770477047704790F8DD30022B5D
:108EC00019BF90F8DC30012B022070472DE9F00F1C
:108ED000012780F8DC70022380F8DD300668D6F8C0
:108EE000D0C3D6F8D43314784FF4007804F00105D9
:108EF000C4F340044FF4F0494FF4004A4FF0000B24
:108F000008297DD006DC01293BD0022951D0042953
:108F100067D003E0102974D0202973D0072180F88E
:108F2000DD1080F8DCB090F8DD10072902BF0120C9
:108F3000BDE8F00F70470CF07F31C6F8D01302681F
:108F400023F0800121F40041C2F8D4130168D1F864
:108F5000D0230CF0803C42EA0C02C1F8D023016817
:108F6000D1F8D42348F2800C03EA0C031A43C1F869
:108F7000D42380F8DD7080F8DCB0BDE8F00F00206D
:108F800070472CF0FE0192F804C023F480330CF0FB
:108F9000020C4CEA010192F808C0127B41EA8501FB
:108FA0000CF0780C43EA04434CEA010102F0800221
:108FB00056E02CF47E41D2F804C023F4003308EAD2
:108FC0000C2C4CEA0101D2F808C0D26841EA852194
:108FD00009EA0C2C43EA44434CEA01010AEA022262
:108FE0003EE02CF47E01B2F804C04FF4003808EAE9
:108FF0000C4C4CEA010141EA854123F4802302E054
:1090000011E030E043E043EA8443B2F808C04FF493
:10901000F00404EA0C4C4CEA010192894FF4000C74
:109020000CEA02421CE02CF07E4192F804C04FF0A2
:10903000007808EA0C6C4CEA010123F4002343EAAF
:10904000C44392F808C04FF0F04441EA856104EA55
:109050000C6C4CEA0101127B4FF0004C0CEA0262EE
:1090600042EA010C5FE723F0FE01137903F00203EB
:109070001943137A41EA850121F48011127B41EAF8
:10908000045103F07803194302F0800212E023F444
:109090007E41536808EA03231943936841EA852116
:1090A00021F40011D26841EA445109EA032319432B
:1090B0000AEA022242EA010335E7000090F8DD30B7
:1090C000022B1BBF90F8DC30012B0220012314BFC0
:1090D00080F8DC30704710B44FF0020C80F8DDC02F
:1090E0004FF0000C082949D006DC01291CD00229C8
:1090F00028D0042934D003E010294DD0202959D09C
:10910000072180F8DD1080F8DCC000BF90F8DD108A
:10911000072902BF012010BC704780F8DD3080F8BD
:10912000DCC010BC0020704711685268890041EA19
:10913000C2120168D1F8084424F0BC042243C1F8EB
:109140000824E3E711685268890241EAC2320168E3
:10915000D1F8084424F43C442243C1F80824D5E75C
:1091600011889288890441EAC2520168D1F8084402
:1091700024F43C042243C1F80824C7E7117812798B
:10918000890641EAC2720168D1F8084424F03C44DF
:109190002243C1F80824B9E711685268890041EAFE
:1091A000C2120168D1F80C4424F0BC042243C1F877
:1091B0000C24ABE711685268890241EAC2320168A7
:1091C000D1F80C4424F43C442243C1F80C249DE71C
:1091D00011F0010F06D00368D3F8D0C362F3000C7E
:1091E000C3F8D0C311F0020F06D00368D3F8D0C380
:1091F00062F3082CC3F8D0C311F0040F06D0036843
:10920000D3F8D0C362F3104CC3F8D0C311F0080FE9
:1092100006D00368D3F8D0C362F3186CC3F8D0C388
:1092200011F0100F06D00368D3F8D4C362F3000C1A
:10923000C3F8D4C311F0200F08BF70470068D0F8FE
:10924000D41362F30821C0F8D413704790F8DD20DE
:10925000022A19BF90F8DC20012A022070474FF043
:10926000010280F8DC204FF0020380F8DD30036853
:10927000D3F8D4C301F040712CF0407C4CEA0101DA
:10928000C3F8D41380F8DD204FF0000180F8DC1023
:10929000084670472DE9F05F026804464FF0020966
:1092A0004FF0040A4FF00108FF2900F0D58006298D
:1092B00000F034810F464FF0840000EBC71052F8E5
:1092C00000B04FF08C0000EBC11016584FF0880032
:1092D0001BF0010F00EBC71518BF16F0010F04D0EB
:1092E00042F805802046FFF74BFD1BF0020F18BF28
:1092F00016F0020F06D0206840F805903946204647
:10930000FFF73FFD1BF0040F18BF16F0040F06D047
:10931000206840F805A039462046FFF733FD1BF0D2
:10932000080F18BF16F0080F07D021684FF008008B
:10933000485139462046FFF726FD1BF0100F18BF95
:1093400016F0100F07D021684FF010004851394631
:10935000204600F021FA1BF0400F18BF16F0400F16
:1093600007D021684FF0400048513946204600F0B0
:1093700012FA1BF0800F18BF16F0800F07D021687B
:109380004FF08000485139462046FFF7F7FC1BF4A8
:10939000807F18BF16F4807F07D021684FF480705B
:1093A000485139462046FFF7EAFC1BF4007F18BFFE
:1093B00016F4007F07D021684FF4007048513946F9
:1093C000204600F0BEF91BF4806F18BF16F4806FC2
:1093D00007D021684FF4806048513946204600F09C
:1093E000AFF91BF4006F18BF16F4006F07D02168A7
:1093F0004FF4006048513946204600F0A4F91BF4B0
:10940000805F18BF16F4805F07D021684FF480504A
:1094100048513946204600F095F91BF4005F18BF0B
:1094200016F4005F07D021684FF4005048513946C8
:109430002046FFF7A9FC1BF4804F14BF16F4804FA1
:10944000BDE8F09F4FF480402168485139462046DE
:10945000FFF72CFDBDE8F09FD2F88853D2F8906357
:1094600015F0010F18BF16F0010F04D0C2F88C835D
:109470002046FFF71CFD15F0020F18BF16F0020F73
:1094800005D02068C0F88C932046FFF711FD15F039
:10949000040F18BF16F0040F05D02068C0F88CA385
:1094A0002046FFF706FD15F0080F18BF16F0080F4D
:1094B00007D021684FF00800C1F88C032046FFF761
:1094C000F9FC15F0100F18BF16F0100F07D0216827
:1094D0004FF01000C1F88C032046FFF7ECFC15F0AC
:1094E000400F18BF16F0400F07D021684FF0400022
:1094F000C1F88C032046FFF7DFFC15F0200F14BFE6
:1095000016F0200FBDE8F09F4FF020002168C1F851
:109510008C03204600F06BF9BDE8F09FD2F8887309
:10952000D2F890635568D2F80CB017F4803F18BF9A
:1095300016F4803F0CD04FF48030C2F88C0384F8CE
:10954000DD804FF0000084F8DC002046FFF71DFCB2
:1095500017F4003F18BF16F4003F07D021684FF4FE
:109560000030C1F88C032046FFF707FC15F0010F0F
:1095700018BF1BF0010F07D02068C0F808804FF01B
:1095800006012046FFF7FCFB15F0020F18BF1BF089
:10959000020F07D02068C0F808904FF0060120465F
:1095A000FFF7EFFB15F0040F18BF1BF0040F07D0F7
:1095B0002068C0F808A04FF006012046FFF7E2FB44
:1095C00015F0080F18BF1BF0080F08D021684FF0E6
:1095D000080088604FF006012046FFF7D4FB15F025
:1095E000100F18BF1BF0100F08D021684FF01000AB
:1095F00088604FF00601204600F0CEF815F0200FED
:1096000018BF1BF0200F06D021684FF020008860A3
:10961000204600F0EBF815F0400F14BF1BF0400F90
:10962000BDE8F09F4FF04000216888604FF00601D0
:10963000204600F0B0F8BDE8F09F0000002804BF0D
:109640000120704738B50446022084F8DD0000256B
:10965000C4F8E050C4F8E450C4F8E850C4F8EC5042
:10966000C4F8F050C4F8F450C4F8F850207A10F060
:10967000010F1DD02068A0F18041B1F5B43108D1AF
:109680001F48016E41F080610166006E00F080604D
:10969000009020680168228A21F4404102F440428F
:1096A0001143A28A21F4405102F440521143016057
:1096B000204600F027F8207A10F0020F08D020682A
:1096C0000168A28921F4407102F4407211430160E3
:1096D000012084F8DD00002184F8DC505FF00702EF
:1096E000C1EBC10004EB8000491C8561C5610562C6
:1096F000456285620563521EF2D1002038BD00002C
:109700000010024008B50068A0F18041B1F5B43105
:1097100018BF08BD0948016E41F080610166006E06
:10972000002200F0806000901146432000F0D4FD3C
:10973000BDE80840432000F0BFBD0000001002401B
:10974000704770477047704770B50D460446FFF785
:1097500065F906462068D0F8880310F4803F0ED1E2
:10976000B5F1FF3F05D0FFF759F9801BA8420DD88E
:1097700065B12068D0F8880310F4803FF0D0012054
:1097800084F8DD00002084F8DC0070BD072084F838
:10979000DD00032070BD70470068A0F18042B2F583
:1097A000B4320CBF06297047FBF77AB890F8DD2079
:1097B000022A19BF90F8DC20012A022070474FF0DE
:1097C000010280F8DC204FF0020380F8DD300368EE
:1097D000D3F884C34CEA0101C3F8841380F8DD2078
:1097E0004FF0000180F8DC10084670477047704762
:1097F00030B490F8DD30022B02BF022030BC70473D
:10980000022380F8DD30062925D08023D0F800C05F
:1098100003EBC1135CF80340956824F007042C4364
:10982000D56824F018042C434CF803409424D0F855
:1098300000C004EBC11413684CF804304FF0980CCE
:1098400003680CEBC11152685A50012180F8DD10F9
:1098500030BC0020704701680B68D2F808C023F0C4
:1098600007034CEA0303D2F80CC023F018034CEAB8
:1098700003030B60036811685961516802689161C4
:10988000E3E7000090F8DDC0BCF1020F19BF90F8CB
:10989000DCC0BCF1010F022070472DE9F003012765
:1098A00080F8DC704FF0020C80F8DDC000264FF02D
:1098B000070806291DD04FF09C0C0CEBC115012A9E
:1098C00040D0A8244FF0800C04EBC1140CEBC11C59
:1098D000022A3BD0042A5DD0082A1CBF80F8DD8014
:1098E00080F8DC605AD000BF90F8DD1007297CD0EA
:1098F00010E0012A16D0022A18D0042A1AD0082A09
:109900001CBF80F8DD8080F8DC6017D090F8DD1097
:10991000072972D080F8DD7080F8DC60BDE8F003C4
:109920000020704702681968D161EFE70268196882
:109930005162EBE7026819689162E7E7026819680B
:10994000D162E3E7026819685151CDE74FF0A409ED
:10995000D0F8008009EBC1111A6848F80120596855
:109960000029016851F80C2022F4405242D041F8FD
:109970000C20016851F80C20D3F8048042EA080258
:1099800041F80C205968B1F5005F2FD0B1F5405F68
:1099900027D0A9E7026819681151A5E74FF0AC0973
:1099A000D0F8008009EBC1111A6848F80120596805
:1099B0000029016851F80C2022F440421AD041F8E5
:1099C0000C20016851F80C20D3F8048042EA880288
:1099D00041F80C205968B1F5005F07D0B1F5405F40
:1099E00082D10268996811517EE706E002689968A1
:1099F000515179E741F80C2076E7BDE8F0030120EA
:109A00007047000090F8DC20012A04BF0220704754
:109A10002DE9F001012480F8DC40022280F8DD20ED
:109A20000268D2F89033D0F804C043EA0C03C2F8BD
:109A3000903311F4803F06D00268D368D0F8C8C0D4
:109A400043EA0C03D3600022124E8C2556F82230D4
:109A50000B420ED0036805EBC21C53F80C70C2EB2E
:109A6000C20800EB8808D8F8208047EA080743F8C6
:109A70000C70521CD2B2062AE8D30268136819434C
:109A8000116080F8DD40002180F8DC10BDE8F001B5
:109A9000084670471801002070B5044690F8DD00B4
:109AA000022808BF70BD94F8DC00012804BF022022
:109AB00070BD012584F8DC50022084F8DD002046CA
:109AC00002F0C8F884F8DD50002084F8DC0070BD96
:109AD00090F8DC20012A04BF02207047012280F8A0
