:020000040800F2
:10000000D00B0020790200087B2200081321000891
:1000100079220008790600082D2800080000000059
:100020000000000000000000000000007F22000827
:1000300019070008000000007D2200088122000846
:10004000930200089302000893020008930200083C
:10005000930200089302000893020008930200082C
:10006000930200089302000893020008930200081C
:10007000930200089302000893020008930200080C
:1000800093020008930200089302000893020008FC
:1000900093020008930200089302000893020008EC
:1000A00093020008930200089302000893020008DC
:1000B00093020008930200089302000893020008CC
:1000C00093020008930200089302000893020008BC
:1000D00093020008930200089302000893020008AC
:1000E000930200089302000893020008930200089C
:1000F000930200089302000893020008930200088C
:10010000930200089302000893020008930200087B
:10011000930200089302000893020008930200086B
:10012000930200089302000893020008930200085B
:10013000930200089302000893020008930200084B
:10014000930200089302000893020008930200083B
:10015000930200089302000893020008930200082B
:10016000930200089302000893020008930200081B
:10017000930200089302000893020008930200080B
:1001800093020008930200089302000893020008FB
:100190009302000800000000930200089302000888
:1001A00093020008930200089302000893020008DB
:1001B00093020008930200089302000893020008CB
:1001C00093020008930200089302000893020008BB
:1001D000930200089302000800F002F800F03CF8D7
:1001E0000AA090E8000C82448344AAF10107DA4592
:1001F00001D100F031F8AFF2090EBAE80F0013F0A8
:10020000010F18BFFB1A43F001031847F832000032
:1002100018330000103A24BF78C878C1FAD85207C2
:1002200024BF30C830C144BF04680C607047000070
:100230000023002400250026103A28BF78C1FBD8EF
:10024000520728BF30C148BF0B6070471FB503F08D
:1002500033F91FBD10B510BD00F09CF91146FFF732
:10026000F5FF02F01FFD00F0BAF903B4FFF7F2FF4B
:1002700003BC00F0C1F90000094880470948004765
:10028000FEE7FEE7FEE7FEE7FEE7FEE7FEE7FEE746
:10029000FEE7FEE704480549054A064B70470000A3
:1002A000E5220008D9010008D0050020D00B00206D
:1002B000D0070020D007002053EA020C00F069802C
:1002C0002DE9F04B4FF00006002B1FBFB3FA83F56A
:1002D00003FA05F424FA05F65E4012BF1643B2FA9B
:1002E00082F502FA05F4C5F120051EBF22FA05FCCD
:1002F00044EA0C04203556EA044C4FEA144418BF73
:10030000641C4FF000084FF00009904271EB030CA1
:1003100039D3002919BFB1FA81F701FA07F6B0FA0B
:1003200080F700FA07F6C7F120071EBF20FA07FC86
:1003300046EA0C062037B6FBF4FCA7EB0507103F96
:1003400007F01F0BCBF120060CFA0BFB2CFA06F67C
:1003500044BFB3460026202FA4BF5E464FF0000BDB
:100360005BEA060C08BF4FF0010B19EB0B09ABFB66
:10037000027C48EB0608C01B06FB02CC0BFB03CC3F
:1003800071EB0C01C1E70B46024641464846BDE809
:10039000F08B13B54FF000004FF00001AFF3008079
:1003A000BDE81C40704740EA010310B59B070FD120
:1003B000042A0DD310C808C9121F9C42F8D020BAD5
:1003C00019BA884201D9012010BD4FF0FF3010BD8D
:1003D0001AB1D30703D0521C07E0002010BD10F85B
:1003E000013B11F8014B1B1B07D110F8013B11F821
:1003F000014B1B1B01D1921EF1D1184610BD032ADF
:1004000040F2308010F0030C00F0158011F8013B31
:10041000BCF1020F624498BF11F801CB00F8013B18
:1004200038BF11F8013BA2F1040298BF00F801CBDC
:1004300038BF00F8013B11F0030300F02580083AB3
:10044000C0F0088051F8043B083A51F804CBA0E80A
:100450000810F5E7121D5CBF51F8043B40F8043B5F
:10046000AFF30080D20724BF11F8013B11F801CB94
:1004700048BF11F8012B24BF00F8013B00F801CB65
:1004800048BF00F8012B704710B5203AC0F00B8030
:10049000B1E81850203AA0E81850B1E81850A0E888
:1004A0001850BFF4F5AF5FEA027C24BFB1E81850E2
:1004B000A0E8185044BF18C918C0BDE810405FEA52
:1004C000827C24BF51F8043B40F8043B08BF7047CE
:1004D000D20728BF31F8023B48BF11F8012B28BFD3
:1004E00020F8023B48BF00F8012B704702F0FF03E1
:1004F00043EA032242EA024200F02CB84FF0000225
:1005000000B5134694469646203922BFA0E80C5009
:10051000A0E80C50B1F12001BFF4F7AF090728BFE4
:10052000A0E80C5048BF0CC05DF804EB890028BF60
:1005300040F8042B08BF704748BF20F8022B11F089
:10054000804F18BF00F8012B704770477047704705
:100550004FF000020429C0F0128010F0030C3FF4A9
:10056000CFAFCCF1040CBCF1020F18BF00F8012B87
:10057000A8BF20F8022BA1EB0C01FFF7C1BF5FEA77
:10058000C17C24BF00F8012B00F8012B48BF00F804
:10059000012B7047754600F02BF8AE460500694602
:1005A000534620F00700854618B020B5FFF772FECD
:1005B000BDE820404FF000064FF000074FF0000864
:1005C0004FF0000B21F00701AC46ACE8C009ACE8E5
:1005D000C009ACE8C009ACE8C0098D46704710B549
:1005E0000446AFF300802046BDE81040FFF73DBE53
:1005F000004870476C05002001491820ABBEFEE79B
:1006000026000200704700008AB0002002F0FCFAC9
:1006100000F042FD044608E00121684602F09EFE1B
:1006200018B19DF8000045280CD000F035FD001BE6
:100630003228F1D3684602F001FC18B10298B0F1FB
:10064000A53F01D002F04CFA0A4C204602F0ACFE65
:100650000028F7D02046049902F020F9059981423C
:10066000F0D1042002F0D0FA142000F04BFA02F08E
:1006700069FAE7E700400008FEE7000030B5002314
:1006800008E000BF01EB8304056824684FEA3444A6
:100690002C605B1CB3EB520FF4D3D20703D002687B
:1006A00031F8231011800068006830BD70B5002358
:1006B0000DE000BF01EB83042588A6786DBA2D04F8
:1006C000E47845EA06252543046825605B1CB3EB06
:1006D000920FEFD394071CD002F00304012C05D035
:1006E000022C06D0D24392070AD012E011F8231050
:1006F0000DE001EB83010268098849BA118008E026
:1007000001EB83020368118849BA19809178026865
:1007100011700068006870BD7047000086B0142139
:100720006846FFF7EBFE2648C16C41F00101C16449
:10073000C16C01F001010591C16C41F00201C1647D
:10074000C16C01F002010591C16C41F00401C1646A
:10075000C06C002500F0040005900120CDE90105E2
:100760000403184F694638460395009400F06CFB6B
:100770004FF0904869464046009400F065FBDFF872
:100780004890660069464846009600F05DFB72B6E8
:10079000BB46C246B0460D4E4F462146584600F075
:1007A0006DFC2146504600F069FC4146384600F099
:1007B00065FC05950598401C0590B042FAD3ECE71E
:1007C00000100240000400480008004890D00300D8
:1007D000144A117F1448012901D003290FD103685D
:1007E00023F400730360036843F400630360036849
:1007F00023F400630360036843F400730360022979
:1008000001D003290BD1016841F4805101600168D6
:1008100021F480510160016841F480610160002091
:100820001077704710000020002002400C490A6A2F
:10083000520210D5C20703D04A6942F004024A614D
:10084000800703D5486940F400404861486940F496
:10085000803048617047486948F204021043F4E769
:10086000002002400E4A136A5B0201D5C90703D07B
:10087000516921F4006102E0516941F40061516164
:100880005169C0B221F47E7141EAC00050615069E3
:1008900040F002005061506940F480305061704770
:1008A00000200240054910B54C6944F001044C6138
:1008B0000260BFF36F8F436010BD00000020024054
:1008C000094A10B55469402344F480245461EFF37D
:1008D000108272B610C95B1E10C013F0FF03F9D16D
:1008E00082F3108810BD00000020024070B506465B
:1008F00000F0D2FB0546134C07E000BF00F0CCFB34
:10090000401BB04201D9032070BD2069C003F5D45B
:1009100020694CF2FA3108400CD00B494A68024376
:100920004A60010F01D0A169A161010100D02061DD
:10093000012070BD2069C00701D001202061002086
:1009400070BD00000020024010000020F0B50446F9
:100950000020CB0711D01E235FF0010603F01F0714
:1009600006FA07F50D4201D15B1EF7D27AB1082ACB
:100970000BD0102A06D0182A01D00120F0BD072B79
:10098000FBD204E0082BF8D201E0102BF5D223684B
:10099000596121688B6823F0180313438B60F0BD05
:1009A00070B5044600200223637723689D6845F0F4
:1009B00001059D60236A012B0ED0022B10D0032B62
:1009C00011D104E0256851F820302B60401C904282
:1009D000F8D32068006806E02046FFF767FE02E0D3
:1009E0002046FFF74BFE0121617770BD70B5040012
:1009F00013D0607F02280FD00220607720688168C2
:100A000041F001018160206800254560204600F02A
:100A100041F865772577002070BD012070BD00008A
:100A200010B5040010D0607F20B900202077204648
:100A300000F03EF802206077207938B1D4E9021244
:100A40002046FFF783FF48B1012010BD2168104800
:100A500048612068816821F0180181606079A0B147
:100A600020692168086120688168626921F060015D
:100A70001143816020688168A26921F080011143DF
:100A8000816001206077002010BD4FF0FF30E8E763
:100A9000B71DC10400680449884204D10348816C31
:100AA00021F4805181647047003002400010024000
:100AB00008B500680649884208D10648816C41F4AF
:100AC00080518164806C00F48050009008BD00006B
:100AD0000030024000100240094810B54FF0FF31CD
:100AE0008163002282630164026481628262C16266
:100AF000C2620163026300F00FFB002010BD000022
:100B00000010024070B5044600F0C6FA0546601CAD
:100B100002D004484068044400F0BEFA401BA042E2
:100B2000FAD370BD040000202DE9F05F054633487C
:100B30008946017801290CD00126804606704FF4C1
:100B40007A7B5846FFF7D2FE07004FF0000A03D029
:100B50004FE00220BDE8F09F51464046C8F804A08F
:100B6000274C226892050AD52168490505D52168D8
:100B700021F480612160032109E0067708E0226802
:100B8000520504D5216821F480612160022101779A
:100B90002868012807D04FF0FF31C9F8001040F253
:100BA000FA3BAE681EE06868FFF740FE5846FFF764
:100BB0009DFE0746606948F204018843606116E0C3
:100BC00030466968FFF74EFE4FF47A70FFF78EFEED
:100BD0000700606920EA0B00606102D0C9F800607C
:100BE00005E0761CD5E902010844B042E8D8FFF7D9
:100BF000EFFD88F800A03846ACE7000010000020A8
:100C000000200240014840687047000010000020AA
:100C1000054901204A6942F000424A6149690029B8
:100C200000DA002070470000002002402DE9FF5F3D
:100C3000254C0646904620789A4601280BD0012084
:100C400020704FF47A7B5846FFF750FE07004FF0B4
:100C5000000904D02AE0022004B0BDE8F09F484615
:100C6000C4F80490194D2968490504D5286820F472
:100C7000806028600220207726B1012E09D0022E44
:100C800007D00CE0424653460198FFF70BFE0126C1
:100C900012E041460198FFF713FE022E0AD0584693
:100CA000FFF724FE4FEA0007FFF792FD84F800905B
:100CB0003846D1E74FF480265846FFF717FE07461F
:100CC0006869B0436861EFE710000020002002402F
:100CD000064900204A69002A07DA054A8A60054A5F
:100CE0008A604969002900DA01207047002002402B
:100CF00023016745AB89EFCD2DE9F84F002301268D
:100D0000DFF828C10F278AE006FA03F414EA01028B
:100D10007ED023F003056544AA46D5F808909D07C8
:100D20004FEA157E07FA0EF505EA090B0095B0F1BA
:100D3000904F05D03E4DA84205D14FF001081CE070
:100D40004FF0000819E03B4DA84202D14FF00208D5
:100D500013E0394DA84202D14FF003080DE0374DA2
:100D6000A84202D14FF0040807E0354DA84202D155
:100D70004FF0050801E04FF0060808FA0EF8D845D4
:100D800026D1DFF8C080D8F8009029EA0209C8F817
:100D9000009008F10408D8F8009029EA0209C8F880
:100DA0000090DFF8A08008F10C08D8F8009029EA3C
:100DB0000209C8F80090A8F10408D8F8005095433B
:100DC000C8F80050009ADAF808509543CAF808505D
:100DD000D0F800804FEA4309032202FA09F248EAF8
:100DE0000208C0F80080DD0800EB8505AA46D5F8AA
:100DF00020804FEA43794FEAD96907FA09F528EAD2
:100E00000508CAF82080C5689543C560456800E0BC
:100E100004E0A54345608468944384605B1C31FA18
:100E200003F27FF471AFBDE8F88F000000000140CD
:100E30000004004800080048000C0048001000486A
:100E400000140048000401402DE9F04FDFF80C9237
:100E5000002301260325A9F1040B85B00F2709F112
:100E6000040AABF1040EF1E006FA03FC12EA0C02EC
:100E70007ED00C7904F00304012C01D0022C20D187
:100E8000846800945C0005FA04F80494009C24EA49
:100E900008040094D1F80C80049C08FA04F8009C23
:100EA00048EA0408C0F80880446824EA0C0491F871
:100EB00004C0CCF3001C0CFA03FC4CEA040CC0F890
:100EC00004C00C79E443A40702D18C68012C0ED035
:100ED000C4684FEA430805FA08FC24EA0C04D1F878
:100EE00008C00CFA08FC4CEA040CC0F80CC00C79E1
:100EF00004F00304022C16D1DC0800EB840CCDF8BE
:100F000008C0DCF820C05C074FEAD46807FA08F490
:100F10002CEA040C0C6904FA08F444EA0C04DDF829
:100F200008C0CCF8204004684FEA430805FA08FCE2
:100F300024EA0C0491F804C00CF0030C0CFA08FC31
:100F40004CEA040CC0F800C04C6814F4403F7CD05C
:100F5000434CD4F860C04CF0010CC4F860C0246E5F
:100F600023F0030C04F0010400943E4C644400E0C0
:100F70006BE00294A4684FEA837C4FEA1C7807FA7E
:100F800008FC24EA0C04B0F1904F06D0DFF8D8C07A
:100F9000604505D14FF0010C20E04FF0000C1DE042
:100FA000DFF8C8C0604502D14FF0020C16E0DFF850
:100FB000C0C0604502D14FF0030C0FE0DFF8B4C0B1
:100FC000604502D14FF0040C08E0DFF8ACC060458A
:100FD00002D14FF0050C01E04FF0060C0CFA08FCB2
:100FE0004CEA040C029CC4F808C0D9F80040CC4676
:100FF000D1F8048094435FEAC82800D51443CCF8A4
:101000000040DAF80040D446D1F8048094435FEA07
:10101000882800D51443CCF80040DBF80040DC46BB
:10102000D1F8048094435FEA883800D51443CCF8A3
:101030000040DEF80040F446D1F8048094435FEAB3
:10104000C83800D51443CCF800405B1C0C6822461D
:10105000DC407FF409AF05B0BDE8F08F0804014023
:101060000010024000000140000400480008004851
:10107000000C00480010004800140048426921EAB2
:1010800002030A4043EA0241816170470AB181616B
:101090007047816270470000014880687047000017
:1010A0000400002002488168426811448160704752
:1010B0000400002010B50024032000F08BF800206D
:1010C00000F008F808B1012401E000F027F82046FC
:1010D00010BD000070B50E4E05460024706898B132
:1010E0004FF47A71B1FBF0F00A490968B1FBF0F0F6
:1010F00000F00EFE40B9102D06D200222946501EE7
:1011000000F048F8356000E00124204670BD000082
:101110000400002030000020704700001C4808B583
:10112000016E41F001010166016E01F001010091C3
:10113000816D41F080518165806D00F0805000909C
:10114000052000F047F8012200216FF00B0000F0AD
:1011500021F8012200216FF00A0000F01BF80122A3
:1011600000216FF0090000F015F800210122481F4E
:1011700000F010F800210122081F00F00BF80021F8
:101180000122881E00F006F8BDE8084000F092B881
:1011900000100240F0B40E4B1B680C46C3F3022350
:1011A000C3F10705042D00D90425191D072901D213
:1011B000002300E0DB1E012606FA05F1491E21404E
:1011C00099409E40761E16403143F0BC01F02FBB83
:1011D0000CED00E0064900F0070208684FF6FF0337
:1011E000184040EA0220034A10430860704700009C
:1011F0000CED00E00000FA052B492C4B0A68322167
:101200004A432B4940B1B0F5007F086829D020F44B
:10121000C06040F480602CE00868C0F341200228E0
:1012200004D051F8800F20F4807022E0D1F88000C3
:1012300020F48070C1F88000086820F4C06040F499
:1012400000700860B2FBF3F0401C00E0401E4A69E9
:10125000520501D50028F9D1486940050AD5032077
:101260007047C0F34120022806D051F8800F40F4A7
:101270008070086000207047D1F8800040F48070D2
:10128000C1F88000086820F4C06040F40070086075
:10129000B2FBF3F0401C00E0401E4A695205DBD56A
:1012A0000028F9D1D8E700003000002040420F00AC
:1012B000007000400248816841F4804181607047BD
:1012C000007000402DE9F843044600680026BB4D3D
:1012D00000035ED5A86D0027C00008D4A86D40F0BB
:1012E0008050A865A86D012700F080500090DFF8BD
:1012F000D092D9F8001041F48071C9F80010FFF7BE
:10130000CBFE804606E000BFFFF7C6FEA0EB08005C
:1013100002282BD8D9F80000C005F5D5D5F89000E3
:1013200010F4407014D0216D814211D0D5F8900096
:10133000D5F8901020F4407041F48031C5F8901039
:10134000D5F8901021F48031C5F89010C5F89000C0
:10135000C00711D0FFF7A0FE804641F2883907E0B0
:10136000FFF79AFEA0EB0801494501D903260BE0DF
:10137000D5F890008007F3D5D5F89000216D20F4C2
:1013800040700843C5F890001FB1A86D20F0805050
:10139000A8652078C00707D0D5F88800616820F0DC
:1013A00003000843C5F888002078800707D5D5F8E2
:1013B0008800A16820F00C000843C5F88800207858
:1013C000400707D5D5F88800E16820F030000843D1
:1013D000C5F888002078000707D5D5F8880021696E
:1013E00020F0C0000843C5F888002078C00607D563
:1013F000D5F88800616920F440700843C5F888007A
:101400002078800607D5D5F88800A16920F44060CF
:101410000843C5F888002078400607D5D5F888002D
:10142000E16920F440500843C5F8880020780006A0
:1014300007D5D5F88800216A20F440400843C5F854
:1014400088002088C00507D5D5F88800616A20F497
:1014500040300843C5F888002068800307D5D5F8D8
:101460009C00A16A20F003000843C5F89C00208876
:10147000800507D5D5F88800E16A20F440200843AC
:10148000C5F88800208840050FD5D5F88800216B65
:1014900020F440100843C5F88800206BB0F5801F89
:1014A00003D1E86840F48010E860208800050FD57B
:1014B000D5F88800616B20F440000843C5F8880027
:1014C000606BB0F5800F03D1E86840F48010E860ED
:1014D0002088C0040FD5D5F88800A16B20F040709B
:1014E0000843C5F88800A06BB0F1807F03D1E8689D
:1014F00040F48010E86020884FF0006180040ED531
:10150000D5F88800E26B20F040601043C5F88800F1
:10151000E06B884203D1E86840F48010E8602088DE
:1015200040040ED5D5F88800226C20F040601043AE
:10153000C5F88800206C884203D1E86840F4801028
:10154000E860208800040FD5D5F88800616C20F091
:1015500040500843C5F88800606CB0F1805F03D14B
:10156000E86840F48030E8602068C0030FD5D5F803
:101570008800A16C20F040400843C5F88800A06CAA
:10158000B0F1804F03D1E86840F48030E860206813
:1015900040030FD5D5F89C00E16C20F440100843BF
:1015A000C5F89C00E06CB0F5001F03D1E86840F47A
:1015B0008010E8603046BDE8F8830000001002406B
:1015C000007000402DE9F0470E4605004FF000077F
:1015D00025D0DFF8AC81D8F8000000F00F00B04251
:1015E0000CD2D8F8001021F00F013143C8F80010D8
:1015F000D8F8000000F00F00B04210D12968614C0B
:10160000C80741F2883A5AD06868DFF87C9103280D
:1016100008D0022820682DD0400500282CDB0120AE
:10162000BDE8F08720688001F9D5E06800F003028A
:10163000E068C0F30310401C032A19D0534A00BFCE
:10164000B2FBF0F0E268C2F306225043E268C2F354
:101650004162521C5200B0FBF2F0484517D9A06815
:1016600010F0F00F0CD0880711D5A86840B10EE03B
:10167000474AE5E78003D0E700F012F9484506D96C
:10168000A06820F0F00040F08000A0608027A068F3
:10169000696820F003000843A060FFF7FDFC814665
:1016A00006E000BFFFF7F8FCA0EB090151453AD86E
:1016B000A068696800F00C00B0EB810FF2D12868D7
:1016C000810714D5400703D5A06840F4E060A0600E
:1016D0002878000705D5A06820F4605040F4E06049
:1016E000A060A068A96820F0F000084304E0802F03
:1016F00003D1A06820F0F000A060D8F800104046A8
:1017000001F00F01B14216D9016821F00F013143F8
:101710000160FFF7C1FC074607E000BFFFF7BCFC14
:10172000C11B514501D903207AE7D8F8000000F029
:101730000F00B042F2D12878400705D5A068E968CB
:1017400020F4E0600843A0602878000706D5A06870
:10175000296920F4605040EAC100A06000F0A0F8C0
:10176000A1680C4AC1F30311515C01F01F01C8408C
:101770000949086009480068BDE8F047FFF7AABCBE
:10178000002002400010024000B4C4040024F40011
:1017900000127A00EA340008300000200400002023
:1017A00070B5FFF779FC284C0546206840F480703E
:1017B000206004E0FFF770FC401B02282FD820684F
:1017C0004005F7D5606840F080406060FFF764FC3A
:1017D00005460120A06041F2883604E0FFF75CFC7A
:1017E000401BB0421BD8A068C0F381000128F5D18E
:1017F00017491648086017480068FFF76BFC08B1E6
:10180000012070BD4FF4807020602060FFF744FC21
:10181000054606E0FFF740FC401B022801D90320E3
:1018200070BD20688001F5D44FF48050E060002046
:10183000A061401E2062D4F8940040F40000C4F877
:101840009400002070BD0000001002400024F4004D
:10185000300000200400002005480649006889681F
:10186000054AC1F30221515C01F01F01C8407047D5
:101870003000002000100240FA34000805480649F4
:1018800000688968054AC1F3C221515C01F01F015B
:10189000C84070473000002000100240FA340008B1
:1018A000184910B58868C0F381021748012A0BD087
:1018B0008A684310C2F38102022A06D08A68C2F302
:1018C0008102032A03D0002010BD184610BDCA684B
:1018D00002F00304CA68C2F30312521C032C02D0A4
:1018E000B0FBF2F001E0B3FBF2F0CA68C968C2F3E2
:1018F00006225043C1F34161491C4900B0FBF1F09D
:1019000010BD0000001002400024F4002DE9F8434F
:1019100004007AD02078F84DC00747D0A868E9685D
:1019200000F00C0001F003010C2802D0082817D0A9
:1019300001E0032914D06068B0F5803F17D0B0F5FE
:10194000A02F286817D020F480302860286820F461
:10195000802028606068E0B1FFF79EFB064614E037
:101960002868800322D560680028D2D01EE028684D
:1019700040F48030EDE740F480202860F7E700BFB6
:10198000FFF78AFB801B642870D828688003F7D58E
:101990000CE0FFF781FB064605E000BFFFF77CFB8C
:1019A000801B6428F0D828688003F7D4207880074B
:1019B0004CD5A868E96800F00C0001F003010C2880
:1019C00002D004280DD001E002290AD0E0680028E6
:1019D00028682BD040F480702860FFF75DFB064636
:1019E00019E02868400502D5E068002891D06868B1
:1019F000217C20F0FE4040EA01606860BF4800683A
:101A0000FFF768FB002800D120E072E1FFF744FBFC
:101A1000801B0228B8D828684005F7D56868217C63
:101A200020F0FE4040EA016068600FE020F4807022
:101A30002860FFF731FB064605E000BFFFF72CFBEF
:101A4000801B0228A0D828684005F7D4207800071A
:101A500029D560690028D5F8940013D040F0010022
:101A6000C5F89400FFF718FB064606E090E000BFBB
:101A7000FFF712FB801B022886D8D5F89400800758
:101A8000F6D510E020F00100C5F89400FFF704FB44
:101A9000064604E0FFF700FB801B022878D8D5F843
:101AA00094008007F6D42078400761D5A86D002601
:101AB000C00008D4A86D40F08050A865A86D01262C
:101AC00000F0805000908E480168C90511D401686B
:101AD000804641F480710160FFF7DEFA074604E0BA
:101AE000FFF7DAFAC01B022852D8D8F80000C00568
:101AF000F6D5A068012815D00528D5F8900016D095
:101B000020F00100C5F89000D5F8900020F0040006
:101B1000C5F89000A06841F28838B8B1FFF7BCFA68
:101B200007460EE0D5F8900040F00100F0E740F0E5
:101B30000400C5F89000F5E7FFF7AEFAC11B414578
:101B400026D8D5F890008007F6D50CE0FFF7A4FA68
:101B5000074604E0FFF7A0FAC11B414518D8D5F8A5
:101B600090008007F6D41EB1A86D20F08050A865C3
:101B70002078800629D5A0690028D5F8980013D0D0
:101B800040F00100C5F89800FFF786FA064606E027
:101B900075E000BFFFF780FA801B02286FD8D5F8E8
:101BA00098008007F6D510E020F00100C5F89800F5
:101BB000FFF772FA064604E0FFF76EFA801B022870
:101BC0005DD8D5F898008007F6D4E069F0B3A9682D
:101BD000C1F3810103295DD00228286820F08070BC
:101BE000286003D0FFF758FA04464BE0FFF754FA99
:101BF000064604E0FFF750FA801B02283FD8286809
:101C00008001F7D4F4E908016FF00F0202EB011133
:101C10000843218A5204490802EB4151A26841EA73
:101C200002210843217D4FF07E42490802EB4161C9
:101C30000843217B40EAC160E968324A1140084309
:101C4000E860286840F08070286000E05EE0E868A6
:101C500040F08070E860FFF71FFA044605E000BF1F
:101C6000FFF71AFA001B022809D828688001F7D567
:101C70004CE000BFFFF710FA001B022802D9032036
:101C8000BDE8F88328688001F4D4E8681E4908405C
:101C9000E8603BE00128F3D0E868226A00F0030125
:101CA000914226D1616A00F0F00209011039914297
:101CB0001FD1A26A00F4FE41B1EB022F19D194F8B2
:101CC0002C2000F07841B1EBC26F12D1218E00F4CC
:101CD000C00249084905A1F50011914209D194F8C3
:101CE000341000F0C06049084906A1F1007181423A
:101CF0000CD00120C4E700000010024004000020C6
:101D0000007000400C809F01FCFFEEFE0020B7E752
:101D100010B5401EB0F1807F01D3012010BD4FF0FF
:101D2000E02460610F21601700F081FD0020A061B8
:101D300007202061002010BD90F88410012918D0E0
:101D4000012180F884102421C0F8881001680A68F5
:101D50000B6823F001030B6022F000510022426661
:101D6000036819602021C0F8881080F8842010468C
:101D700070470220704770B5044690F8840001282F
:101D80001DD0012084F884002420C4F88800206835
:101D90000568026822F0010202602068826822F071
:101DA00060620A438260204600F0A4FA2068056061
:101DB0002020C4F88800002084F8840070BD022030
:101DC00070BD70B5044690F8840001281DD0012034
:101DD00084F884002420C4F888002068056802681C
:101DE00022F0010202602068826822F060420A4309
:101DF0008260204600F07EFA206805602020C4F84A
:101E00008800002084F8840070BD022070BD70B589
:101E100004001DD02420C4F888002068016821F047
:101E20000101016020680025056020684560206888
:101E30008560204600F044F8C4F89050C4F88850FB
:101E4000C4F88C5044F86C5F65602576002070BD46
:101E5000012070BD10B5040003D0D4F8880010B183
:101E600007E0012010BD002084F88400204600F027
:101E70003DF82420C4F888002068016821F00101A1
:101E80000160A06A10B1204600F056FA204600F02A
:101E900037FB0128E6D02068416821F49041416079
:101EA0002068816821F02A0181602068016841F082
:101EB000010101602046BDE8104000F0A1BA000019
:101EC00000680749884209D10648816D21F48021C4
:101ED00081654FF440610448FEF70EBF7047000073
:101EE00000480040001002400004004810B59CB0BB
:101EF0000446142115A8FEF701FB54216846FEF79D
:101F0000FDFA17492068884227D104200024009058
:101F100003946846FFF7D6F908B1FEF7FFFB1148B6
:101F2000816D41F480218165816D01F480211A91D8
:101F3000C16C41F00201C164C06C15A900F002003F
:101F40001A904FF4406015900220CDE91604072046
:101F5000CDE918400448FEF777FF1CB010BD000023
:101F60000048004000100240000400482DE9F84FEE
:101F70000446D0F88C009B4616460D46202802D019
:101F80000220BDE8F88F7DB376B30027C4F89070C7
:101F90002220C4F88C00E7662034FFF77DF8A6877E
:101FA0008246E68754F8180C4FF48053FF21203CFA
:101FB000984204D12269A2B940F2FF1111E07F22B8
:101FC00068B1B0F1805F10D0A4F86070B4F86070B0
:101FD000984201D1206978B12E4600250DE026698E
:101FE0003EB9A4F86010F1E728E0216909B13F216A
:101FF000F7E7A4F86020E9E700264FF0200807F093
:10200000FF0900BFB4F85E0020B353460022202130
:102010002046CDF800B000F0BFFB18B1C4F88C80AA
:102020000320AEE72068406A56B100EA090006F8CE
:10203000010B00BFD4F88C00222805D00120A0E7B6
:10204000384025F8020BF5E7B4F85E00401EA4F80E
:102050005E00D7E7C4F88C80002092E72DE9F84FA6
:102060000446D0F88800984615460E46202802D02F
:102070000220BDE8F88F96B38DB30020C4F890001D
:102080004FF02109C4F888901834FFF705F8A587A8
:102090008246E58754F8100C183CB0F5805F01D1FA
:1020A000206910B13546002600E000255FF02007CA
:1020B000B4F8560053464FF00002CDF80080D8B176
:1020C0008021204600F068FBD8B955B115F8010B06
:1020D00021688862D4F8881039EA010006D001200E
:1020E000C7E736F8020BC0F30800F1E7B4F8560072
:1020F000401EA4F85600DBE74021204600F04CFBD0
:1021000018B1C4F888700320B3E7C4F888700020C1
:10211000AFE7FEE70B4810B50949016000210171E6
:102120004171202141618021816101210162FEF71D
:1021300077FC002803D0BDE81040FEF7EFBA10BDD1
:1021400000300240B40400202DE9F04387B0142190
:102150006846FEF7D3F92A48C16C41F00401C16416
:10216000C16C01F004010591C16C41F02001C16412
:10217000C16C01F020010591C16C41F00201C16404
:10218000C16C01F002010591C16C41F00101C16413
:10219000C06C1C4F00F001004FF400540590002269
:1021A00021463846FEF772FFDFF85C806610002299
:1021B00031464046FEF76AFF4FF090490022314613
:1021C0004846FEF763FF0125CDE90045002402944F
:1021D000694638460394FEF737FE0096CDE9015470
:1021E000694640460394FEF72FFE0096CDE9015460
:1021F000694648460394FEF727FE07B0BDE8F08322
:10220000001002400008004800040048194810B5BA
:10221000174901604FF4E1314160002181600C22D7
:10222000C160C0E904128161C16101624162202183
:10223000816209020164FFF70DFE08B1FEF76EFA34
:1022400000210C48FFF7BDFD08B1FEF767FA002139
:102250000848FFF790FD08B1FEF760FA0548FFF760
:102260006BFD002803D0BDE81040FEF757BA10BD43
:1022700000480040D8040020FEE7FEE770477047A2
:10228000FEF710BF10B594B038216846FEF736F956
:1022900014210EA8FEF732F90020FEF7ADFF012051
:1022A00000900004019002200324CDE90704552189
:1022B000CDE909010B900C900D906846FFF726FBC5
:1022C00060B90F20CDE90E040020109011901290FB
:1022D00004210EA8FFF776F9002801D0FEF71EFAB8
:1022E00014B010BD0248016841F4700101607047EC
:1022F00088ED00E030B5416EB9B10268916892682E
:10230000C1F342610B4B520F9C5CE50003F10804E2
:10231000A25CB5FBF2F2A0F86A205A5C615CD200C4
:10232000B2FBF1F1A0F8681030BD0121A0F86A10ED
:10233000F8E70000DA34000890F82810090706D5FD
:1023400001684A68836B22F400421A434A6090F89D
:102350002810C90706D001684A68C36A22F400320F
:102360001A434A6090F82810890706D501684A6820
:10237000036B22F480321A434A6090F82810490710
:1023800006D501684A68436B22F480221A434A60EA
:1023900090F82810C90606D501688A68C36B22F434
:1023A00080521A438A6090F82810890606D5016881
:1023B0008A68036C22F400521A438A6090F828104D
:1023C000490611D501684A68436C22F480121A4309
:1023D0004A60416CB1F5801F06D101684A68836C80
:1023E00022F4C0021A434A6090F82810090606D564
:1023F00001684A68C06C22F4002202434A607047B8
:102400002DE9F84300260446C0F89060FEF744FE2C
:102410008046206800684FF0200500076FF07E4777
:1024200013D54346002229042046009700F0B4F952
:1024300058B1216851E8000F20F0800041E8000207
:10244000002AF6D1C4F8885021E0206800684007CF
:1024500022D5434600224FF480012046009700F029
:102460009BF9C8B1216851E8000F20F4907041E851
:102470000002002AF6D12068083050E8001F21F041
:10248000010140E80012002AF5D1C4F88C5084F80C
:1024900084600320BDE8F883C4F88850C4F88C50E9
:1024A00044F86C6F666026760020F3E710B502688A
:1024B00052E8001F21F4907142E80013002BF6D17E
:1024C0000E4B0268083252E8001F194042E800141F
:1024D000002CF6D1C16E012908D1016851E8002F06
:1024E00022F0100241E80023002BF6D12021C0F891
:1024F0008C100021C166416710BD0000FEFFFFEF98
:102500002DE9F0410446016880682269E3691043BF
:10251000626900251A431043DFF84CC20A68934BE6
:102520001A4002430A6020684168E26821F4405181
:10253000114341602168A069614501D0226A1043BE
:102540008A688B4B1A4002438A602068C16A626ABB
:1025500021F00F011143C1628649236886488B42EE
:102560000DD1D0F8880010F0030006D0012867D004
:10257000022854D0032851D164E001204FE07F4964
:102580008B420BD1D0F8880010F00C0047D0042803
:1025900045D0082852D00C2840D153E078498B42CE
:1025A0000BD1D0F8880010F0300038D0102847D078
:1025B000202843D0302831D144E072498B420BD1DE
:1025C000D0F8880010F0C00029D0402838D08028EA
:1025D00034D0C02822D135E06B498B420ED1D0F8DF
:1025E000880010F440701AD0B0F5807F28D0B0F584
:1025F000007F23D0B0F5407F10D123E063450DD19B
:10260000D0F8880010F4406009D0B0F5806F17D082
:10261000B0F5006F12D0B0F5406F13D010205B4AB8
:102620005B4F00264FF40041634539D160B1022869
:102630000DD004280DD0082831D10EE00220EEE79D
:102640000420ECE70820EAE7FFF706F903E011466B
:1026500003E0FFF725F901007BD0606A37F810200E
:102660006768B1FBF2F007EB4703834269D8B0EB30
:10267000073F66D8002308461946FDF71DFE0902EC
:1026800041EA106102027808101871413A460023AD
:10269000FDF712FE3F4AA0F54071914257D950E034
:1026A000E3694FF6EF788B422BD1092849D2DFE856
:1026B00000F005080D48254848480E00FFF7CCF803
:1026C00001E0FFF7DBF8010001D142E01146606A4A
:1026D00037F81000B1FBF0F04100606801EB5001E9
:1026E000B1FBF0F1A1F1100040452AD84FF6F0728D
:1026F00001EA0200C1F34201084328E0FFF7D0F8E5
:10270000E1E709281DD2DFE800F005080D1C1E1CBA
:102710001C1C0E00FFF7A0F801E0FFF7AFF8010066
:1027200001D116E01146606A37F81000B1FBF0F1F4
:10273000606801EB5001B1FBF0F0A0F110014145E0
:1027400004D9012505E0FFF7ABF8E8E780B221687E
:10275000C8600120A4F86A0024F8680F2846E660E3
:102760002661BDE8F081000000800040F369FFCFE2
:10277000FFF4FF1100380140001002400044004007
:1027800000480040004C0040005000400024F4008D
:10279000C2340008FFFC0F002DE9F04799461746A8
:1027A0000D4604464FF00008089E33E0701C31D0FF
:1027B000FEF772FCA0EB0900B04218D8BEB1206849
:1027C0000168490726D5802D24D0402D22D0C1692B
:1027D000C94309070DD4082505622046FFF766FEA8
:1027E000C4F8905084F884800120BDE8F08703206D
:1027F000FBE7C069C04300050CD421684FF40060BA
:1028000008622046FFF752FE2020C4F8900084F8AA
:102810008480ECE72068C06935EA000004D000201D
:10282000B842C3D00020E0E70120F9E7FEE709073E
:10283000090E002804DB00F1E02080F80014704746
:1028400000F00F0000F1E02080F8141D7047000038
:1028500010B50A4C0219531861B1B0F5C83F09D838
:10286000934207D3A24205D30548834202D80548C4
:10287000824201D2002010BD012010BD004000089E
:1028800000D00108003800080A4610B50146024889
:10289000FEF786F8C04310BDB4040020FFF7F4BF74
:1028A00070B50023084D0CE0CC5C60400024C607E6
:1028B00002D085EA500000E04008641C082CF6D3E2
:1028C0005B1C9342F0D370BD2083B8ED10B586B089
:1028D0000022164908230144049208B31448814297
:1028E0001ED801F2FF71C80AC002A0F10060C00A40
:1028F00001210838CDE90230CDE90021FEF7E8F9E1
:102900000C48816941F0704181614CF2FA310161FA
:1029100004A96846FEF708F90446FEF779F914B1F0
:10292000002006B010BD0120FBE7000000400008B9
:1029300000D001080020024070B50D461446014643
:1029400010224FF0FF30FFF7ABFF22462946FFF77A
:10295000A7FFC04370BD00002DE9F04F87B0994636
:1029600090468B468246109CFEF796FB061937A0D0
:102970000024006801AD6F46009018E00A2105A808
:1029800000F0ECFC98B1395D9DF81400814205D14E
:102990002855641CE4B2042C09D10FE09DF8001006
:1029A000814203D101248DF8040000E00024FEF7E9
:1029B00073FB301A0028E1DC042C37D104242819D9
:1029C0000A2100F0CBFC002831D0641C102CF6D377
:1029D000BDF80C40BDF80E10E04380B2884225D10E
:1029E000B4F5107F22D8002508E000BF08EB0500F1
:1029F0000A2100F0B3FC002819D06D1CA542F5D3C4
:102A0000002506AE70190A2100F0A8FC00280ED09F
:102A10006D1C042DF6D32246414601A8FFF78CFF1A
:102A2000054606A800F050FAA84203D0002007B0DF
:102A3000BDE8F08F9DF808108AF80010BDF80A0074
:102A4000ABF80000A9F800400120F0E74856424CDE
:102A500030B585B01C461546B3F5107F02D900206D
:102A600005B030BD48228DF8002056228DF8012097
:102A700042228DF804008DF8022000204C228DF8AF
:102A800005008DF803200DF1060000F009FD214638
:102A900002A800F005FDE04381B20DF10A0000F04C
:102AA000FFFC002103A800F0FFFC224629466846EF
:102AB000FFF742FF014604A800F0F6FC102168462B
:102AC00000F062FC0028CBD02CB12146284600F053
:102AD0005BFC0028C4D0042104A800F055FCBFE72B
:102AE0001CB50020144900900190086000F0D6FB4E
:102AF000012000F089F801A9684600F0EDF9B8B1AD
:102B0000DDE9000100F0D0FA90B1042000F07CF87B
:102B10007820FDF7F7FFBFF34F8F08480168084A98
:102B200001F4E06111430160BFF34F8F00BFFDE787
:102B300000F046F8DCE70000000000200CED00E0AB
:102B40000400FA0570B51A4E1A48D6E90054FFF78A
:102B50005EF91948FDF74AFFFDF7BEFFFEF720FEBC
:102B600072B600204FF0E021086148618861134986
:102B70004FF0206008600020421E810001F1E0213A
:102B8000C1F88021C1F88022401C0828F5D30B48E9
:102B9000001D0660002080F3148885F30888BFF3C9
:102BA0004F8FBFF36F8F62B6A446BDE87040604799
:102BB00000400008D8040020B404002004ED00E028
:102BC00070B50122140321460D48FEF75FFA00227A
:102BD00021464FF09040FEF759FA0122094E550365
:102BE00029463046FEF752FA002429463046FEF7C1
:102BF00045FA6420FDF786FF641C082CF5D370BDF0
:102C000000040048000800482DE9F04101464FF457
:102C1000805422486600224F4FF0904505293BD250
:102C2000DFE801F0030916202F0001222146FEF7FC
:102C30002DFA01222AE000222146FEF727FA01227E
:102C400021462846FEF722FA01223146384605E0A1
:102C50002146FEF713FA002221462846BDE8F0413E
:102C6000FEF714BA01222146FEF710FA002221468F
:102C70002846FEF70BFA31463846BDE8F041FEF72C
:102C8000FDB900222146FEF701FA0022214628461E
:102C9000FEF7FCF90022D8E7BDE8F0810004004807
:102CA00000080048FEF706FAFFF7ECFAFFF74CFAC7
:102CB000FFF7ACFAFFF72EFAFDF7A6FCFEE70000DF
:102CC0002DE9F0439BB08946804600266D46FF22E1
:102CD000282128461096FDF709FC29480127CDE94F
:102CE0000007741E274803A9029481E8010311A874
:102CF00000F0A4F810B11798401C00E03846CDE968
:102D000006046846099400F043F808900C960720E2
:102D1000CDE90D700F97FDF7DBFF1B48816941F08E
:102D2000704181614CF2FA31016110A90CA8FDF7E4
:102D3000FBFEB8B94FF05A3000F07DF802460B4662
:102D400012490020FDF772FF60B9104E00241036C2
:102D500005EBC40006EBC401D0E900230020FDF719
:102D600065FF28B1FDF754FF00201BB0BDE8F083DC
:102D7000641C052CECD3FDF74BFF0120F5E70000A8
:102D80004356424800400008002002400038000836
:102D900000B58BB0014628226846FDF775FB4FF061
:102DA000FF30089028216846FFF76EFD0BB000BD8C
:102DB00030B58BB005460C46684600F03FF848B386
:102DC0000298B0F15A3F25D10498A84222D1059823
:102DD000A0421FD1FDF77CFF0F48816941F070418F
:102DE00081614CF2FA3101614FF0A534204600F0C8
:102DF00022F802460B4609490020FDF717FF054659
:102E0000FDF706FF35B900F045F8A04202D10120D8
:102E10000BB030BD0020FBE700200240083800085E
:102E200002688A4205D14068C943884201D1012025
:102E3000704700207047C1437047000070B5124CC6
:102E400005461249206888421BD16068012818D1C4
:102E50000F49E068884214D1206990B1B0F5C83FAD
:102E60000FD82046FFF794FF216A884209D1282213
:102E700021462846FDF708FB00F00CF8A860012069
:102E800070BD002070BD0000103800084356424855
:102E90000040000870B54FF05A3421460948FFF74A
:102EA000BFFF064607484FF0A53529460830FFF713
:102EB000B7FF16B120B1284670BD4FF0FF3070BD8E
:102EC000204670BD0038000882780188C07862F31F
:102ED0001F4141EA006070472DE9F04F8DB0002698
:102EE0008A4607468DF81C60ADF81460ADF818608E
:102EF0004FEA0604FEF7D0F80546001B642805DB00
:102F0000002000F0CBF900287ED02C4664200090F1
:102F100006AB604A05A907A8FFF71EFD0028E9D007
:102F20009DF81C20012A0CD0092A18D0032A1BD096
:102F300000230421CDF80060BDF8140000F0ECF986
:102F4000D8E7BDF818000028F2D1BDF8140000F051
:102F5000A5F9002858D0FEF79FF80446CAE70023D9
:102F60001A460B210096E7E7DFF82C91BDF8188090
:102F7000344609F10800254609F10C0B0190B8F11F
:102F8000140F18D20621484600F08EFA414609F186
:102F9000040000F089FA3146019800F085FA3146C4
:102FA000584600F081FA10234A46BDF81410042058
:102FB000FFF74EFD67E03748FFF786FF386035487A
:102FC000001DFFF781FFCAF8000032480830FFF704
:102FD0007BFF02902F480C30FFF776FF80462D488C
:102FE0001030FFF771FF01462C4A0298904211D130
:102FF000386878B1B0F5C83F0CD8294B00EB020C0B
:103000009C4507D8904500E03EE003D3994201D8A3
:10301000884502D306243D681AE0224A116811B19E
:103020000C240D4614E04FF00108C2F80080DAF8D5
:103030000010FFF745FE4FF0070A20B13868FFF790
:1030400045FC18B104E05446454601E054460225CB
:103050002146114800F028FA294609F1040000F041
:1030600023FA3146019800F01FFA3146584600F025
:103070001BFA1023084ABDF814100420FFF7E8FCDF
:10308000002801D01CB100200DB0BDE8F08F012058
:10309000FAE700003400002074020020004000081D
:1030A00000D00108000000202DE9F34F00248BB070
:1030B00007464FF0010925464FF40078DFF8D0B1FC
:1030C000B1E000203E1B8DF81800ADF82000ADF8EF
:1030D0002800464500D9464621466E4800F0E4F9EE
:1030E0006C483146001D00F0DFF96A48214608307F
:1030F00000F0DAF9674839460C3000F0D5F91023B2
:10310000644A49460520FFF7A3FC98B140F2DC5021
:103110005F4A00900AAB0C3A08A906A8FFF71CFC0E
:1031200060B19DF81800092810D0032813D0062894
:1031300020D117E023460022009405E06D1C502D9D
:1031400071D923462A4600940A219CE00022234696
:103150000B21009403E02346C2B204210094BDF881
:10316000200091E0BDF82010494503D1BDF82800AA
:103170000C280CD26D1C502D55D9BDF820009DF89F
:103180001810009440EA0142234604217BE04048A5
:103190000C38FFF799FE82463D480838FFF794FE49
:1031A00002903B48001FFFF78FFE0790A2451ED1FB
:1031B0000298B0421BD1BDF828100C30884216D1BD
:1031C0000298404513D801462046FFF741FB70B1F5
:1031D00058460299FFF758FB0799884213D06D1C97
:1031E000502D20D90A462346032100944BE06D1C44
:1031F000502D18D9A24501D0052100E00621234613
:103200000094029A3FE00220FFF7FEFC5946204658
:10321000029A00F0E1F8B0B102980025044409F1E7
:1032200001001FFA80F9BC42FFF44BAF1A4D39463A
:103230002846FFF733FB02460C9882420AD0234609
:10324000082100941FE0FDF7DDFC0246234607211C
:10325000009418E0284600F0A7F880B138460C9991
:10326000FFF7A6FD0028EED03B460094002148461B
:103270000C9A00F051F801200DB0BDE8F08F0094D9
:103280006A6823460921484600F046F80020F3E723
:1032900040000020740200200040000810B586B0F5
:1032A000044618216846FDF729F918494FF4C8303B
:1032B000CDE900100814029080100390C001049022
:1032C00013480590134800F0EFF812480199001DCB
:1032D00000F0EAF80F480299083000F0E5F80D48D0
:1032E00003990C3000F0E0F80A480499103000F01F
:1032F000DBF808480599143000F0D6F81823054A81
:1033000021460220FFF7A4FB06B010BD00400008D4
:1033100048564350740200202DE9F04104461E46F1
:1033200017460D48069D00F0BFF80B483946001DB2
:1033300000F0BAF808483146083000F0B5F8064801
:1033400029460C3000F0B0F82146BDE8F0411023CA
:10335000014A0720FFF77CBB740200200B4610B522
:10336000014601220748FEF701FE10B1012802D0F4
:1033700005E0012010BD03491E20096808620020F5
:1033800010BD0000D80400200A4610B501464FF4D5
:103390007A730448FEF762FE08B1002010BD0120D8
:1033A00010BD0000D8040020D0E90021C0050FD1D5
:1033B000A2F10050B0F5003F0AD8500708D10548E7
:1033C0000844B0F5C83F03D2C80701D001207047B8
:1033D0000020704700C0FFF72DE9FF47DFF8B480F9
:1033E0008946164600EB080700251146FFF730FA1C
:1033F00000283DD0FDF76CFC2748816941F0704101
:1034000081614CF2FA3101613DE04FF0FF30CDE9CE
:103410000000741B082C06D309EB0500016800911D
:10342000406801900EE0FF22082102A8FDF75EF837
:1034300009EB0501224602A8FCF7E1FFDDE90201E4
:10344000CDE900017C1944450FD3144904F108006B
:1034500088420AD8DDE90023D14371EA03010AD08A
:1034600021460020FDF7E2FB28B1FDF7D1FB00204B
:1034700004B0BDE8F087082269462046FCF793FFB8
:103480000028F2D10835B542BFD3FDF7C1FB0120BA
:10349000EEE70000004000080020024000D00108D4
:1034A0000170090A4170704701700A0A42700A0CE3
:1034B0008270090EC17070474FF04070E1EE100A43
:1034C0007047010002000400060008000A000C001A
:1034D00010002000400080000001010101030701ED
:1034E00000000804020408010101000000000000BF
:1034F00000000102030406070809000000000102A1
:1035000003040000243500080000002034000000FF
:103510001402000858350008340000209C0B0000FD
:103520003002000800000000100000000100000050
:10353000000000000000000000000000000000008B
:10354000000000000100000000000000000000007A
:08355000000000000024F4005B
:04000005080001D915
:00000001FF
